:100000000C942A001895000018950000189500001F
:10001000189500001895000018950000189500002C
:10002000189500001895000018950000189500001C
:10003000189500000C9461010C948D011895000036
:1000400018950000189500001895000018950000FC
:10005000189500008FE58DBFC8E3E0E24E2E88E0E2
:100060008EBFD8E0F8E05F2EA89584B7082E877F72
:1000700084BF88E1992781BD91BDEEEFF7E0A0E64E
:10008000B0E088278D933197E9F783E389B980E061
:1000900080BD88E18AB96624579A789484E6809373
:1000A0008E0082E889B986E080BDE8E6F3E00E9430
:1000B00013010E941A01AEE8B0E08C9199270E94CA
:1000C0004E0180E489B983E080BDECE6F3E00E9454
:1000D00013010E941A01AEE8B0E08C9199270E94AA
:1000E0004E0180EA89B981E080BDE0E7F3E00E943B
:1000F00013010E941A01AEE8B0E08C9199270E948A
:100100004E018FEC89B980E080BDE6E7F3E00E9404
:1001100013010E941A01AEE8B0E08C9199270E9469
:100120004E0187E689B980E080BDECE7F3E00E94EC
:1001300013010E941A01AEE8B0E08C9199270E9449
:100140004E0183E389B980E080BDE2E8F3E00E94DC
:1001500013010E941A01AEE8B0E08C9199270E9429
:100160004E0189E189B980E080BDE8E8F3E00E94B2
:1001700013010E941A01AEE8B0E08C9199270E9409
:100180004E018CE089B980E080BDEEE8F3E00E948A
:1001900013010E941A01AEE8B0E08C9199270E94E9
:1001A0004E0188E089B980E080BDE4E9F3E00E9477
:1001B00013010E941A01AEE8B0E08C9199270E94C9
:1001C0004E0183E089B980E080BDEAE9F3E00E9456
:1001D00013010E941A01AEE8B0E08C9199270E94A9
:1001E0004E0181E089B980E080BDE2EAF3E00E943F
:1001F00013010E941A01AEE8B0E08C9199270E9489
:100200004E0183E089B980E080BDEAEAF3E00E9414
:1002100013010E941A01AEE8B0E08C9199270E9468
:100220004E01F894FFCF0E945D01802D11F005D0A2
:10023000FACF08958DE001D08AE09F939FB79F93F6
:10024000AF93BF930F937F9390918D009431E1F31F
:10025000F89490918D00939590938D00992700913B
:100260008C00A7E7B0E0A00FB91F8C930395043171
:1002700009F4002700938C00559A7F910F91BF914C
:10028000AF919F919FBF9F9108953197F1F7089586
:10029000689462F80895E89462F80895EF93FF93E4
:1002A000EE27E82BE92B31F0E0EDF7E03197F1F79D
:1002B0000197D1F7FF91EF910895C89531960020ED
:1002C00008957F930F93AF93BF938F939F938FB7AF
:1002D0008F938091760004E1081B21F49CB10E9469
:1002E000480112C000917500A0E6B0E077279CB1EC
:1002F000A00FB71F9C9383958093760003950431DC
:1003000009F40027009375008F918FBF9F918F9103
:10031000BF91AF910F917F9118957F93AF93BF934A
:100320008F939F938FB78F9390918D00992399F01E
:100330009A9590938D009927A7E7B0E080918B0064
:10034000A80FB91F9C918395843109F48827809365
:100350008B009CB901C055988F918FBF9F918F9151
:10036000BF91AF917F911895333030003630300017
:100370003132303000003234303000003438303028
:100380000000393630300000313932303000333837
:10039000343030003537363030003132383030309C
:1003A00000003235363030300000313135323030F7
:0203B00000004B
:00000001FF
