:100000000C944E000C9467020C9400000C940000B9
:100010000C9400000C9400000C9400000C94000060
:100020000C9400000C9400000C9400000C94F2025C
:100030000C9400000C9400000C9400000C94000040
:100040000C9400000C9400000C9400000C94000030
:100050000C9400001027E80364000A00010000105F
:10006000000110000100010000000000000000007D
:100070000001200001002D4E414E00494E46000077
:1000800080C00100020066000A0004006800010050
:10009000810174000200850180000000F894EE27C1
:1000A000ECBBF1E0F5BFE5BFF8E1F1BDE1BD8DE0EE
:1000B000A2E0BB27ED938A95E9F780E098E0A0E6FF
:1000C000ED930197E9F7E2E8F0E0859195910097CB
:1000D00061F0A591B59105901590BF01F0010590D3
:1000E0000D920197E1F7FB01F0CFEFE5EDBFE8E0FE
:1000F000EEBFC0E6D1E00C941503AA93E881E13786
:1001000019F4E2E16E2E0EC0EC3619F4EBE16E2E1E
:1001100009C0E93619F4EAE16E2E04C0E03711F4A3
:10012000E1E16E2E0C945404AA93E881EC3119F4A9
:10013000E1E66E2E8AC1E23319F4E2E66E2E85C145
:10014000E13219F4E3E66E2E80C1E33219F4E4E6FD
:100150006E2E7BC1E43219F4E5E66E2E76C1EB32E9
:1001600019F4E6E66E2E71C1E43319F4E7E66E2E5B
:100170006CC1E33319F4E8E66E2E67C1E33419F479
:10018000E9E66E2E62C1EB3319F4EAE66E2E5DC12C
:10019000E23419F4EBE66E2E58C1EB3419F4ECE6B8
:1001A0006E2E53C1EA3319F4EDE66E2E4EC1E133E3
:1001B00019F4EEE66E2E49C1E43419F4EFE66E2E22
:1001C00044C1ED3419F4E0E76E2E3FC1E53119F476
:1001D000E1E76E2E3AC1ED3219F4E2E76E2E35C139
:1001E000EB3119F4E3E76E2E30C1EC3219F4E4E799
:1001F0006E2E2BC1EC3319F4E5E76E2E26C1EA32E0
:1002000019F4E6E76E2E21C1ED3119F4E7E76E2E01
:100210001CC1E23219F4E8E76E2E17C1E53319F478
:10022000E9E76E2E12C1EA3119F4EAE76E2E0DC12C
:10023000E53419F4E0E36E2E08C1E63119F4E1E388
:100240006E2E03C1EE3119F4E2E36E2EFEC0E632EB
:1002500019F4E3E36E2EF9C0E53219F4E4E36E2EEF
:10026000F4C0EE3219F4E5E36E2EEFC0E63319F474
:10027000E6E36E2EEAC0ED3319F4E7E36E2EE5C037
:10028000EE3319F4E8E36E2EE0C0E93219F4E0E24F
:100290006E2EDBC0E43519F4EBE56E2ED6C0EB35DF
:1002A00019F4EDE56E2ED1C0EC3419F4EBE36E2EAB
:1002B000CCC0E23519F4E7E26E2EC7C0E13419F480
:1002C000ECE26E2EC2C0E93419F4EEE26E2EBDC02F
:1002D000EA3419F4EFE26E2EB8C0EE3019F4EEE70E
:1002E0006E2EB3C0EE3419F4EDE26E2EAEC0E535DD
:1002F00019F4EDE36E2EA9C0ED3519F4ECE56E2E80
:10030000A4C0E53019F4E1E06E2E9FC0E63019F488
:10031000E2E06E2E9AC0E43019F4E3E06E2E95C050
:10032000EC3019F4E4E06E2E90C0E33019F4E5E00F
:100330006E2E8BC0EB3019F4E6E06E2E86C0E338EB
:1003400019F4E7E06E2E81C0EA3019F4E8E06E2E71
:100350007CC0E13019F4E9E06E2E77C0E93019F481
:10036000EAE06E2E72C0E83719F4EBE06E2E6DC035
:10037000E73019F4ECE06E2E68C0EA3519F4EDE0D0
:100380006E2E63C0E63719F4E2E26E2E5EC0E636EA
:1003900019F4E0E16E2E59C0ED3019F4E3E26E2E4F
:1003A00054C0E83519F4E9E16E2E4FC0E73719F46F
:1003B000EDE16E2E4AC0EE3719F4ECE16E2E45C029
:1003C000EC3719F4EAE26E2E40C0EB3719F4EDE297
:1003D0006E2E3BC0E93719F4EBE26E2E36C0E137E2
:1003E00019F4EEE26E2E31C0E03719F4E0E36E2E20
:1003F0002CC0E93619F4E1E36E2E27C0E23719F478
:10040000E2E36E2E22C0EA3719F4E3E36E2E1DC03C
:10041000EB3619F4E4E36E2E18C0E33719F4E5E384
:100420006E2E13C0E43719F4E6E36E2E0EC0EC36E0
:1004300019F4E7E36E2E09C0E53719F4E8E36E2EF0
:1004400004C0ED3711F4E9E36E2E0C945404E091EE
:100450007B01A09179010E947F040E2EA0917A0168
:10046000E0EF0E947F04E02119F0A09179015CDEA9
:10047000A0917901E0EE0E947F040E2EA0917B01F5
:10048000E0EE0E947F040E22A0917C01E0EF0E942A
:100490007F040E22A0917A01E0917D010E947F04E9
:1004A000E02109F02ADEA0917901E2E10E947F04B7
:1004B0000E2EA0917B01E0EF0E947F040E22A091FE
:1004C0007C01E2E10E947F04E02101F008950E9496
:1004D00056048394E1E0E81521F4E8948399689444
:1004E00020F8E2E0E81521F4839B02C0E1E07E2AD7
:1004F000E3E0E81521F4839B02C0E2E07E2AE4E019
:10050000E81521F4839B02C0E4E07E2AE5E0E815CB
:1005100021F4839B02C0E8E07E2AE6E0E81521F49E
:10052000839B02C0E0E17E2AE7E0E81521F4839B8B
:1005300002C0E0E27E2AE8E0E81521F4839B02C0D5
:10054000E0E47E2AE9E0E81521F4839B02C0E0E8BC
:100550007E2AEAE0E81521F4E8948399689421F86A
:10056000EBE0E81521F4E8948399689422F8A82D2B
:10057000EBE00E947F040E2EA0E020FCA1E0E0E072
:100580000E947F040E22A0E022FCA1E0E1E00E9494
:100590007F04E02121F0F201E758FE4F7082EBE08A
:1005A000E81509F4C394E3E0EC1559F450DFA62DE7
:1005B0000E94EA03CC2488244424552477240E94F2
:1005C0006404EBE0E81529F48824F20131962F0148
:1005D0007724EBE0E81529F4689420F8E89421F8F2
:1005E00022F815C00E945604F50131965F01E4E639
:1005F000F0E0AE16BF065CF0E0E0E9BF689424F8D6
:10060000882444245524772422DFAA24BB24E9919A
:10061000EFBFF991E991B991A99199918991799156
:100620006991F990199009901895EBB7E064EBBFC8
:10063000E2E0E5BFE0E0E4BFE0E4EABFE0E8E8B91B
:10064000E0E0E9BFE3E0E3BFE0E0E2BFECBF8B98AE
:10065000939A8F9A9798A0E10E9422047894B89870
:10066000C09A979AA4EFB1E00E948E04979824FE56
:1006700046C0E89424F8E9E1E61539F4E8E02E26CE
:1006800023FC02C0979801C0979A23FE0CC0A62DA8
:10069000E1E60E9489040E2EEAE70E948404E0212C
:1006A00011F0E0E26E1AA62DE0E20E9489040E2EFF
:1006B000EEE70E948404E02111F00E94EA03E2E1E7
:1006C000E61549F40E94D503E0E0EA93A0E00E9419
:1006D000C103E1E0DE2EA62DEDE00E947F040E2E88
:1006E000AD2DE1E00E947F04E02139F0E2E0DE2E52
:1006F000E0E0EA93A1E00E94C1030E946404B7CF46
:10070000FFCFFFE0FA95F1F70895AAB3AF70AABB47
:10071000D99AD898F6DFDA9AF4DFA9B3DA98F1DF3C
:10072000DA9AEFDFDA98A7FDF5CF0895A07FAB2B1B
:10073000ABBBDA9A0E948103DA980E948103089584
:10074000AA93D998AAB3A76FAABBBBB3BF70A8815D
:10075000EDDFA881A295EADFD99A0C945404DA9AC5
:100760000E948103E9B3DA980E948103E07F089533
:100770000E948103F4DFAE2FF2DFD998E295EA2BD5
:100780000895AA930E948503E881F0E0EB57FE4F9D
:10079000E081A981AE0F0E94A003E981E093890165
:1007A000E881E0938A01229608950E948503A2E0E1
:1007B0000E94A0030E948503ACE00E94A0030E9457
:1007C0008503A1E00E94A003E0E0E0938A01E093AA
:1007D00089010895AA93EF93FF93A8816894AA30A2
:1007E00039F0E894E0918B01A0918901AE1758F09F
:1007F000E0918A01EF5FE0938A01E0E0EA93A09143
:100800008A01BFDF56F0E0918901EF5FE093890133
:100810007CDFD89AA8810E94A003FF91EF910C94ED
:100820005404AA27BB271197F1F70895AA93D998E2
:10083000AAB3A76FAABBBBB3BF70A8810E949603DF
:10084000D99A32C0AA93DA98D898E881E0938B01BC
:10085000E058E0938701E881E054E09388010E942A
:1008600076040E9476040E947604DBDFA0E2DEDFDD
:10087000D8DFA8E20E947B04A4E00E947B04A5E8E4
:100880000E947B04AAB3AF70AABBD99A0E94B80396
:10089000E53011F0E0E008C00E948503A6E00E9468
:1008A000A0030E94D503E1E0219608950A921A92CE
:1008B000FA926A937A938A939A93AA93BA93EA9351
:1008C000FA93EFB7EA930895E0E0E0937901E093BB
:1008D0007A01E0937B01E0937C01E0937D01E0935A
:1008E0007E01E0937F01E093800108950E9411044E
:1008F000A0E30C9416040E94A0030C941104EA17C0
:10090000E1E009F0EE270895EA17E1E008F4EE27A8
:100910000895AE17E1E008F4EE270895109639F037
:10092000A8958DEC9AE00197F1F71197C9F7089512
:00000001FF
