:100000000C942A001895000018950000189500001F
:10001000189500001895000018950000189500002C
:10002000189500001895000018950000189500001C
:10003000189500001895000018950000189500000C
:1000400018950000189500001895000018950000FC
:10005000189500008FE58DBFC8E3E0E24E2E88E0E2
:100060008EBFD8E0F8E05F2EA89584B7082E877F72
:1000700084BF88E1992781BD91BDEEEFF7E0A0E64E
:10008000B0E088278D933197E9F70E943E026624FD
:100090000E943302A0988F988C9A949878947091CB
:1000A00065007F777093650081E0809366000E9411
:1000B0000203A0E6B0E08C9300916000003011F4E0
:1000C0000C94A60000916000093111F00C9480009E
:1000D000A5E6B0E08C9187FB882780F9809580FBAE
:1000E000A5E6B0E08C9187F98C93A5E6B0E08C9101
:1000F00087FB16F00C947F00949A0C9480009498DF
:10010000A5E6B0E08C9187FB16F00C94A00000915E
:100110006000013681E008F480E08F930091600078
:100120000A3781E010F009F080E09F91892388234D
:1001300011F40C94A000A0E6B0E08C9180528C9356
:100140000E94B3000E9408010E94FD000C94570019
:10015000F894FFCF0E943302E2EAF6E00E94260202
:100160000C94B000089500916000023111F00C94DD
:10017000C2000E9433020E942D0281E0809366003B
:100180000C94FC000D3011F00C94D300009166002B
:10019000013011F00C94D1000E94310282E0809372
:1001A00066000C94FC00003111F00C94E30080E137
:1001B0000E948C02E6EAF6E00E94260280E10E949C
:1001C0008C020C94FC0000916000003281E008F485
:1001D00080E08F93009160000E3781E010F009F00D
:1001E00080E09F918923882311F40C94FC00A0E601
:1001F000B0E08C910E9486020895809162008A93FB
:10020000809161008A9380E08A930E94B0020895F1
:10021000A0E6B0E08C91A4E6B0E08C93009164007D
:1002200040E10E944103A1E6B0E00C9300E140915F
:100230006100049FA3E6B0E00C920091640040913D
:100240006300041BA2E6B0E00C93089500090005CA
:100250000301020C000A080604235E0000160000D9
:100260001471310000007A7361773213006378648F
:10027000653433000020766674723500006E626863
:1002800067793607082C6D6A75373800002C6B6962
:100290006F303900002E2F6C3B702D0000002700BE
:1002A0005B3D000019000D5D005C0000003C00009B
:1002B00000001000003100343700000030123235E9
:1002C0003638221D0B2B332D2A391C000000000765
:1002D000000000000000000000007E0000000000A0
:1002E0000051210000005A53415740000043584438
:1002F000452423000020564654522500004E424813
:1003000047595E00004C4D4A55262A00003C4B4997
:100310004F292800003E3F4C3A505F000000220069
:100320007B2B000000000D7D007C0000003E0000E3
:10033000000800003100343700000000302C323556
:1003400036380000002B332D2A390000000102034B
:100350000405060708090A0B0C0D0E0F10111213E5
:100360001415161718191A1B1C1D1E1F20212223D5
:100370002425262728292A2B2C2D2E2F30313233C5
:100380003435363738393A3B3C3D3E3F40414243B5
:100390004445464748494A4B4C4D4E4F50515253A5
:1003A0005455565758595A5B5C5D5E5F6061626395
:1003B0006465666768696A6B6C6D6E6F7071727385
:1003C0007475767778797A7B7C7D7E7F8081828375
:1003D0008485868788898A8B8C8D8E8F9091929365
:1003E0009495969798999A9B9C9D9E9FA0A1A2A355
:1003F000A4A5A6A7A8A9AAABACADAEAFB0B1B2B345
:10040000B4B5B6B7B8B9BABBBCBDBEBFC0C1C2C334
:10041000C4C5C6C7C8C9CACBCCCDCECFD0D1D2D324
:10042000D4D5D6D7D8D9DADBDCDDDEDFE0E1E2E314
:10043000E4E5E6E7E8E9EAEBECEDEEEFF0F1F2F304
:10044000F4F5F6F7F8F9FAFBFCFDFEFF0E943D0318
:10045000802D11F05BD0FACF089582E05DD00BD0F3
:1004600007C080EC59C081E057D005D080E854C067
:1004700080E852D0089583E09927B2C08AEF90E0D7
:100480000E94F002D79AD69AD59AD49AD29AD09A44
:10049000D89885E090E00E94F002DA98DF98DE9824
:1004A000DD9ADC9ADA9AEF93FF93E1E1F1E00E94A2
:1004B000AD02FF91EF91DA9890D0DA9AEF93FF9323
:1004C000E1E1F1E00E94AD02FF91EF91DA9885D071
:1004D000DA9AEF93FF93E1E1F1E00E94AD02FF9120
:1004E000EF91DA987AD0DC98DA9AEF93FF93E1E112
:1004F000F1E00E94AD02FF91EF91DA986ED088E2B0
:100500000BD08EE009D086E007D00895D89A829566
:1005100005D004D062D00895D898F9CF859510F40D
:10052000DC9A01C0DC98859510F4DD9A01C0DD9855
:10053000859510F4DE9A01C0DE98859510F4DF9A57
:1005400001C0DF98DA9AEF93FF93E1E1F1E00E94B6
:10055000AD02FF91EF91DA9808953197F1F7089580
:10056000899110EC180F8991180F0991000F000F55
:100570008D9A80E48FBD89E08EBD80E090E09DBDC6
:100580008CBD89E990E09BBD8ABD2EE0000F111F54
:1005900030F480EC8FBD12D080E48FBD05C080E4C4
:1005A0008FBD0CD080EC8FBD09D02A9579F780ECF7
:1005B0008FBD87E590E00E94F0020895EF93FF93CE
:1005C000E8E8F9E00E94AD02FF91EF910895689488
:1005D00062F80895E89462F8089581E090E000C020
:1005E000EF93FF93EE27E82BE92B31F0EDECFAE0E7
:1005F0003197F1F70197D1F7FF91EF91089562FAE2
:1006000026F432C0E89462F80BE08799F8CF023004
:1006100038F031F00B3008F003C096959899906847
:10062000879BFECF0A9589F7153619F4892F112774
:100630000895903F19F4689465F816C0923111F04E
:10064000993529F465FAAEF0689464F80DC065FA3E
:100650006EF064FA0EF49058ECE4F2E08827E90FAB
:10066000F81FC895802D089588270895E89465F8A7
:10067000FBCFE89464F865F8F7CFC8953196002071
:100680000895FF93881BF9E0001FFA9511F4FF917C
:100690000895881F841B18F4840F8894F5CF08945C
:0806A000F3CF4F4B00002000D6
:00000001FF
