:0C0000000C9481000C9400000C94000093
:10000C000C9400000C9400000C9400000C94000064
:10001C000C9400000C9400000C9400000C94000054
:10002C000C9400000C9400000C9400000C94000044
:10003C000C9400000C9400000C9400000C94000034
:10004C000C9400000C940000000000000000000064
:10005C000000000000000000506C656173652057C3
:10006C00616974202E2E2E0044656661756C7420B7
:10007C0053657474696E6773005248282525293AB4
:10008C002025332E31660054656D702843293A20A3
:10009C0025332E316600524820436F6E74726F6C9C
:1000AC0065723A200025332E31663C25332E31669D
:1000BC003C25332E31660054656D7020436F6E7491
:1000CC00726F6C65723A20002D4E414E000080C05C
:1000DC0001002D4E414E00494E4600000100020029
:1000EC00540001000500560002007801DA000100FE
:1000FC007C01DC000000F894EE27ECBBF1E0FBBFC8
:10010C00EBBFE5BFF8E1F1BDE1BD8DE0A2E0BB279F
:10011C00ED938A95E9F780E094E0A0E6ED930197E2
:10012C00E9F7E8EEF0E085919591009761F0A591E3
:10013C00B59105901590BF01F00105900D920197B6
:10014C00E1F7FB01F0CFEFE5EDBFE4E0EEBFC0E679
:10015C00D1E00C94BB01B99AC19AB89AC09A83E0C9
:10016C008A95F1F7C1980E946E09C09A83E08A952E
:10017C00F1F7C19A0E946E0908951A9311E0B9988B
:10018C00C09AE0E0B199E1E01E2FC0981991089552
:10019C00AA931A93B99AC198C09883E08A95F1F7FB
:1001AC0010E8113050F0E981E12311F0C19A01C03F
:1001BC00C198C09AC0981695F4CF188122960895CC
:1001CC00AA93B99AE881E03011F4C19801C0C19AA0
:1001DC00C09AC098219608951A930A9300E0B99892
:1001EC00C09810E8113030F0C09AB199012BC0982A
:1001FC001695F8CFE02F099119910895BA93AA9307
:10020C000E943E0C11E000E030E020E040E050E0C5
:10021C00A2DFAE81BDDFB1DF1E2F1030D1F4B1995A
:10022C00FECFDADF0E2FA0E0CBDFD6DF3E2FA0E033
:10023C00C7DFD2DF2E2FA1E0C3DFA02FB0E0E0E0BC
:10024C00F1E00E946A0CDF01E32FF0E0EA0FFB1FE4
:10025C00AF01FA010E94450C289608950E94760978
:10026C00E0E0EA83EB831A930A9300E010E0A3E04A
:10027C000E947B0971F00E948209AAE0B7ED83E22B
:10028C009CE30E943A0EA6E6B6E680E292EC0E944F
:10029C0088090E948F09269608952C978CE0A0E07F
:1002AC00B0E0E8E5F0E00E944C0C1A930A9300E0F1
:1002BC0010E0A5E00E947B0909F453C00E9482095A
:1002CC00ADEBB2E586E19DE30E943A0EA5ECBEEFE4
:1002DC0082E090EC0E94EB0D7F936F93FF93EF9372
:1002EC000E948209A6EFB4E286ED95EB0E943A0ECD
:1002FC00DF01CB010E9482090E943A0EAF91BF919F
:10030C008F919F910E94EB0D0E949609A1E0B0E0A5
:10031C000E94EC0EA3DFEE83FF8368877987A0E051
:10032C00B0E088EC91E40E94E40D7F936F93FF930F
:10033C00EF930E948209ACEAB5EC87EA98E30E943D
:10034C003A0EAAE0B7ED83E29CE30E94EB0DAF916D
:10035C00BF918F919F910E943A0E0E949B090E941F
:10036C0088090E948F092E96089539D13BD143D12B
:10037C00B998C19AB89AC09AA0E10E94320885999E
:10038C0002C0869B01C011C027D20E94A009A4E61E
:10039C00B0E00E940E080E94A709A4E7B0E00E94FA
:1003AC000E08A0E9B1E00E94EC0EF7D1CED1A4E684
:1003BC00B0E00E94EC0E71DFE0936001F0936101FC
:1003CC00609362017093630149DFE0936C01F093D9
:1003DC006D0160936E0170936F01849902C020FED1
:1003EC0001C008C0689420F8B0D15394E2E0E51540
:1003FC0008F45524849B02C0E89420F8552011F48D
:10040C0005D109C0E1E0E51511F427D104C0E2E003
:10041C00E51509F43CD1989903C0E1E0E51509F024
:10042C001BC00E94AC090E94EB0D0E94BB090E94EC
:10043C00C4090E94D3090E94CC0E09F008F409C02B
:10044C00E0E0E0936401E0936501E0936601E093E2
:10045C0067010E94DC09DFCF859903C0E1E0E51557
:10046C0009F012C00E94AC090E94E40D0E94BB0965
:10047C000E94D3090E943F0D24F00E94C4090E94DF
:10048C00BB090E94DC09E8CF879903C0E1E0E515C0
:10049C0009F014C00E94F2090E94010A0E940C0A81
:1004AC000E94150A0E94CC0E09F008F404C00E94A8
:1004BC001A0A0E94010A0E94270AE6CF869903C0F5
:1004CC00E1E0E51509F016C00E94F2090E94E40D66
:1004DC000E943D0A0E941A0A0E94EB0D0E940C0A0F
:1004EC000E94CC0E20F40E94150A0E943D0A0E9424
:1004FC00270AE4CF989903C0E2E0E51509F01BC088
:10050C000E94460A0E94EB0D0E94550A0E945E0A48
:10051C000E946D0A0E94CC0E09F008F409C0E0E0BC
:10052C00E0937001E0937101E0937201E093730129
:10053C000E94760ADFCF859903C0E2E0E51509F049
:10054C0012C00E94460A0E94E40D0E94550A0E94A5
:10055C006D0A0E943F0D24F00E945E0A0E94550A0B
:10056C000E94760AE8CF879903C0E2E0E51509F00E
:10057C0014C00E948C0A0E949B0A0E94A60A0E9428
:10058C00150A0E94CC0E09F008F404C00E94AF0AB0
:10059C000E949B0A0E94BC0AE6CF869903C0E2E047
:1005AC00E51509F016C00E948C0A0E94E40D0E9409
:1005BC00D20A0E94AF0A0E94EB0D0E94A60A0E946A
:1005CC00CC0E20F40E94150A0E94D20A0E94BC0A8A
:1005DC00E4CF77D086D097D0A8D0E9CEFFCFA39A1E
:1005EC00AB980895A49AAC98A59AAD98A29AAA989B
:1005FC00A19AA9980895A098A89A8D98959A8C98E4
:10060C00949A8F98979A8E98969A089560970E94CC
:10061C00D2070E94DB0AE5E8F0E0FA93EA930E9425
:10062C00DF0A84E00E9446072896E0E0EA93A0E007
:10063C000E94C2070E94EA0A0E94DB0AE3E9F0E08A
:10064C00FA93EA930E94ED0A84E00E9446072896EA
:10065C000E94A7090E94EA0AEDC160970E94A009B6
:10066C00A2EAB0E00E940E080E94DB0AE1EBF0E087
:10067C00FA93EA930E94F80A0E94EF0C0E94DF0A98
:10068C000E94010B0E940A0B0E94EA0AD3C16097D8
:10069C000E94A009A3ECB0E00E940E080E94DB0AA5
:1006AC00E1EBF0E0FA93EA930E94110B0E94EF0C3D
:1006BC000E94ED0A0E941A0B0E940A0B0E94EA0A81
:1006CC00B9C10E94010B0E94230B09F008F402C06F
:1006DC00AC9A06C00E94C4090E94230B08F4AC9883
:1006EC0008950E94F80A0E94230B10F4AD9A0AC0D8
:1006FC000E941A0A0E94EB0D0E94230B09F008F4C9
:10070C0001C0AD9808950E94110B0E942E0B10F49D
:10071C00A99A0AC00E94AF0A0E94EB0D0E942E0BF0
:10072C0009F008F401C0A99808950E941A0B0E94C0
:10073C002E0B09F008F402C0AA9A06C00E945E0AA9
:10074C000E942E0B08F4AA9808950E94390B0E945F
:10075C00410B6CF4AB9A84EF91E00197F1F7AB98F5
:10076C0084EF91E00197F1F70E944B0BF0CF0C94C2
:10077C00D1080E94390B0E94410B6CF4AB9A80E9B2
:10078C0091E00197F1F7AB9880E991E00197F1F7CF
:10079C000E944B0BF0CF0C94D108A0E0B0E00E946B
:1007AC00060D0E94BB090E94540BA4E0B0E00E940D
:1007BC00060D0E943D0A0E94540BA8E0B0E00E9476
:1007CC00060D0E94550A0E94540BACE0B0E00E944A
:1007DC00060D0E94D20A20C0A0E0B0E0E0E0F0E0FC
:1007EC0060E272E40E94580BA4E0B0E0E0E0F0E0BC
:1007FC0060EA72E40E94580BA8E0B0E0E0E0F0E0A0
:10080C0068EC71E40E94580BACE0B0E0E0E0F0E082
:10081C0064E372E40E941A0DAAE0B0E00E94EC0EB0
:10082C000895BA93AA931A930A93AA81BB8112963C
:10083C000E94C50C309729F1AA81BB8114960E94A5
:10084C00C50C8F01309761F00230E0E01E0780F09C
:10085C00F80131978F01AA81BB811496ED93FC931B
:10086C00AA81BB8112960E945B0B3197AC81A0834D
:10087C00AA81BB810E94C50CFF2312F00E945B0B66
:10088C0006C0AA81BB81EFEFFFEFED93FC931981BA
:10089C00088125960895BA93AA930E947609E0E8F8
:1008AC00EA83EFE3EB830E94400CEE85FF85EF3F7C
:1008BC00AFEFFA0749F4E885F985FA93EA93A4EDCA
:1008CC00B0E00E946508B4C0EF3FAFE7FA0749F407
:1008DC00E885F985FA93EA93A5EDB0E00E946508E6
:1008EC00A7C0AB85A73010F0E6E0EB871B85E12FA6
:1008FC001150E03019F00E94610BF9CFEC85FD85A9
:10090C006E857F850E943B0D21F430E00E94610BC7
:10091C002DC03B850E94700B09F008F40BC00E949F
:10092C00610B0E94700B28F00E947B0B0E94800BC5
:10093C00F8CF0DC00E94700B40F40E947B0B0E94FC
:10094C008C0B0E94930B3150F5CF0E94610BEC8500
:10095C00FD856E857F850E94980B0E94930B0E94EB
:10096C00700B20F00E947B0B0E94800B10E0EB853B
:10097C00E11790F1AC81BD818E819F810E949F0B0C
:10098C000E94980BDF01CB010E94BC08EC83FD8315
:10099C006E837F830E947B0B0E94880E0E94780DD1
:1009AC000E2F0E94A60B0E94AD0B0E94B20BAC81C5
:1009BC00BD818E819F810E943A0E0E947B0B0E940A
:1009CC00B80B0E94930BE12F1F5FE03081F60E9461
:1009DC00A60BEEE2EC93CBCF0E94BD0B3197AA8510
:1009EC00A08330302CF43195A885B985EDE203C095
:1009FC00A885B985EBE2EC930E94BD0B0E94BD0B60
:100A0C003197BF01A32FEAE00E94800CE05DDB016F
:100A1C00EC930E94BD0B3197BF01A32FEAE00E941B
:100A2C00A90CE05DDB01EC93A885B985E0E0EC93C3
:100A3C000E94470C60960895BA93AA93EF9761971A
:100A4C000E943E0C10E0FE01E85AFF4F0E94D40CAD
:100A5C00E887F987FE01EA5AFF4F0E94D40CEE8317
:100A6C00FF83AE81BF81E0E0F0E0ED93FC93DE010B
:100A7C00A45ABF4F0E945B0B3197E4912E2FE030AC
:100A8C0009F4F5C1E12FE03039F4253211F411E00D
:100A9C0002C00E94C30BEAC1E130C1F4253219F443
:100AAC000E94C30BE2C112E0E0E0ED8B00E02D32BE
:100ABC0011F401E0DBC12B3219F4EBE2ED8BD6C162
:100ACC00203219F4E0E2ED8BD1C102C0E23039F4EE
:100ADC0050E013E0203311F40068C8C102C0E330C9
:100AEC0091F4203310F02A3308F007C0AAE05A9F83
:100AFC00502DE22FE0535E0FB9C140E02E3211F4BD
:100B0C0014E0B4C10FC0E43099F4203310F02A3350
:100B1C0008F008C00062AAE04A9F402DE22FE05383
:100B2C004E0FA4C12C3619F4026015E09FC103C00E
:100B3C00E53009F09BC1E22FE33659F40E94CA0B51
:100B4C000E94D00B0E94CA0BA481AA930E94D70BBF
:100B5C008CC1E53411F0E53609F403C0E63609F032
:100B6C0048C0FE017696EE87FF870E94DD0B0E943F
:100B7C00CF0C0E9496090E94E30BAD85AA2332F09C
:100B8C00AD89AB3259F0A03281F017C00E94E50B51
:100B9C000E94450D0E949609EDE2ED8B07FF05C002
:100BAC00ED89EA930E94D70B08C0EE85FF8531963C
:100BBC00EE87FF873197AD89A08305FF46E0263687
:100BCC0051F40E94E50B0E94EF0C4A93AB89BC894F
:100BDC000E94D30809C00E94E50B0E94EF0C4A93B7
:100BEC002A93AC89BD8957DEFE0176960E94EA0BEA
:100BFC0024C0E33751F40E94E30B0E94DD0B1496E2
:100C0C00ED91FD910E94EA0B11C0E037D9F40E94DE
:100C1C00E30B0E94DD0B1496ED91FD91EE87FF879F
:100C2C00AE85BF850E947E081E2F08600F7740306E
:100C3C0011F0411708F001C0142F40E0E0E0EC8BFC
:100C4C0030E073C0E43611F0E93611F4046002C0F0
:100C5C00E537A1F4EAE0EC8B01FF08C0E0E0FAEC28
:100C6C006AE97BE30E94F20B1AE022C0E0E1F7E2B2
:100C7C0060E070E00E94F20B15E01AC0E83511F448
:100C8C00086003C0E83709F0F0C0E0E1EC8B01FF2D
:100C9C0008C0E0E0F0E060E070E10E94F20B18E0C8
:100CAC0007C0E0E0F0E160E070E00E94F20B14E0BD
:100CBC00403011F00F7701C041E001FF08C00E94E5
:100CCC00E30B0E94DD0B14960E94C90C15C002FFA9
:100CDC000AC00E94E30B0E94DD0B14960E94C50C07
:100CEC000E94650C09C00E94E30B0E94DD0B149658
:100CFC000E94C50C66277727EA87FB876C877D8760
:100D0C0002FF12C0AD85AA2342F40E94E50B0E949B
:100D1C00570C0E949609EDE2ED8BED89E03019F04D
:100D2C001F5F4F5F01C00B7F342F00FD14C01517E0
:100D3C0010F4351708F00FC007FF08C002FF04C0FD
:100D4C000B7F2D89115001C020E301C020E20E94CD
:100D5C00C30B5150ECCF141790F4006102FF06C086
:100D6C000E94F70B09F0515011504150E0E3EA9307
:100D7C000E94D70B503009F051504150ECCF312F1D
:100D8C00EC89E030B9F43030A1F003FF06C0EE85F9
:100D9C00FF852591EE87FF8705C0AE85BF852D9118
:100DAC00AE87BF870E94C30B503009F051503150B1
:100DBC00EACF51C00E94070C0E94850C2E2F2A30BE
:100DCC0030F003FF02C0295C01C0295A01C0205D2C
:100DDC0004FD21C0213360F4A889B9898A899B89D3
:100DEC00A130E0E0BE07E0E08E07E0E09E0709F4EA
:100DFC000BC0431740F4531710F000FF01C010C094
:100E0C0020E207FF08C020E3006102FF04C00E943B
:100E1C00F70B09F051500E94C30B503009F05150A0
:100E2C0031500E94070C0E94B50C0E949609EC8967
:100E3C00A889B9898A899B89FF27662777270E9409
:100E4C00850C0E94F20BE889F9896A897B890E94DA
:100E5C003B0D09F0AFCF00FF08C0503031F05150BE
:100E6C00E0E2EA930E94D70BF8CF10E000CEAE81FF
:100E7C00BF81ED91FD910E94450CEF966F96089500
:100E8C00FF92F82E26970E94400CDE011C960E94C1
:100E9C00530C0E94C50C309719F4EFEFFFEF27C0ED
:100EAC00DE0116960E94530C8D01DE011C960E94E9
:100EBC00530CED91FD91EE83FF83E0E0E887E98729
:100ECC00DE011A960E94530CED91FD91FA93EA9370
:100EDC001A930A93E7E1F4E0FA93EA93DE011A9687
:100EEC00ABDD9F01AE81BF81E0E0EC93F9010E9484
:100EFC00470C2A96FF900895FFE0FA95F1F70895B4
:100F0C00AAB3AF70AABBD99AD898F6DFDA9AF4DFF5
:100F1C00A9B3DA98F1DFDA9AEFDFDA98A7FDF5CF0B
:100F2C000895A07FAB2BABBBDA9A0E948207DA98AC
:100F3C000E9482070895AA93D998AAB3A76FAABB57
:100F4C00BBB3BF70A881EDDFA881A295EADFD99A67
:100F5C000C946308DA9A0E948207E9B3DA980E942B
:100F6C008207E07F08950E948207F4DFAE2FF2DF44
:100F7C00D998E295EA2B0895AA930E948607E881F6
:100F8C00F0E0E858FE4FE081A981AE0F0E94A10766
:100F9C0049807880229608950E948607A2E00E94DC
:100FAC00A1070E948607ACE00E94A1070E94860759
:100FBC00A1E00E94A107E0E07E2E4E2E0895AA9398
:100FCC00EF93FF93A8816894AA3019F0E894461423
:100FDC0030F07394E0E0EA93A72DCEDF36F0439423
:100FEC008FDFD89AA8810E94A107FF91EF910C94F2
:100FFC006308BA93AA931A93A981BA81ED91A98334
:10100C00BA831E2FE03019F0A12FD9DFF5CF10C015
:10101C00BA93AA931A93E981FA813196E983FA83F8
:10102C003197E4911E2FE03019F0A12FC8DFF3CFD8
:10103C00188123960895AA27BB271197F1F70895D5
:10104C00AA93D998AAB3A76FAABBBBB3BF70A88148
:10105C000E949707D99A31C0AA93DA98D8986880D9
:10106C00E881E058E0937A01E881E054E0937B0159
:10107C000E940C0C0E940C0C0E940C0CDCDFA0E2F9
:10108C00DFDFD9DFA8E20E94110CA4E00E94110C52
:10109C00A5E80E94110CAAB3AF70AABBD99A0E9402
:1010AC00B907E53011F0E0E008C00E948607A6E021
:1010BC000E94A1070E94D207E1E021960895BA93FD
:1010CC00AA93E991F991A991B991CD0105900D924D
:1010DC000020E1F7FC010895BA93AA93A991B99164
:1010EC00EE27FF276D91662311F03196FBCF089503
:1010FC00BA93AA93AA27BB27E991F99105900020EE
:10110C0011F01196FBCFFD0108950E94F40C7B8128
:10111C006A81F981E88177FB770F67FD7160972F02
:10112C009E5781F078F0983190F4AA27BB27882736
:10113C0008948795B795A7959A95D1F7EA23FB2341
:10114C00682305C0E8947727EE27FF2766276F777B
:10115C00769508F4606877F9A991B991899199917C
:10116C00EA17FB076807790797FB08950E94F40CB0
:10117C000E94E50C0E948B080E94EA0C19F40E9454
:10118C00E00C09C0E6F70E94E00CA0E0B0E080E8BB
:10119C009FE30E94E40D24960895BA93AA93A0D0DD
:1011AC00E0E0EA83EFE3EB831A930A93EB85FC858B
:1011BC00EF3FAFEFFA0731F432D3AEEDB0E00E945F
:1011CC00650882C0EF3FAFE7FA0731F428D3AFEDE3
:1011DC00B0E00E94650878C0AC85AA2352F4E9857A
:1011EC00FA856B857C850E94450D1ED322D3EDE2DA
:1011FC00EC93A885A73010F0E6E0E8871885E12F7E
:10120C001150E03021F01CD394D21FD3F8CF22D34D
:10121C000E94EB0D09D310E0E0E0F0E060E87FE322
:10122C0014D318D30E94CC0E68F00AD36FD20DD30E
:10123C001F5F173230F0F3D2A3EEB0E00E946508C6
:10124C0043C0EFCF103021F4F4D2E0E3EC931CC098
:10125C00E12F1150E030C1F0F3D26BD263D2DF0139
:10126C00CB010E94BC08F1D2F5D20E94880E0E94DC
:10127C00780D0E2FDED26BD2E3D26ED20E943A0ED4
:10128C00F2D270D2D1D2E4CFE885E030C9F0D1D21D
:10129C00EEE2EC93E885E150E887EF5F89F0E3D26A
:1012AC0035D2C2D2E985FA856B857C850E94780D92
:1012BC000E2FBFD24CD2D7D24FD254D2B5D2EACF06
:1012CC00AE81BF81E0E0EC93198108812D960895E1
:1012DC0083E08A95F1F7C09883E08A95F1F7089539
:1012EC002497E0E0E883E9830895B0E00E940401CC
:1012FC008F01002E012A0895F801662777270E9496
:10130C00B10D08950E94EB0DEA83FB836C837D8302
:10131C000895EA81FB816C817D8119810881089592
:10132C00EA87FB876C877D870895AA85BB858C85AA
:10133C009D8508950E94D207E0E0EA93A0E00C940A
:10134C00C207E0E0EA93A1E00C94C2070E94BF033D
:10135C00E0916401F0916501609166017091670103
:10136C00A0E0B0E080E09FE30895E0936401F09387
:10137C00650160936601709367010895E0916801BF
:10138C00F091690160916A0170916B01A0E0B0E08D
:10139C0080E89FE30E94E40D0895A0916401B09150
:1013AC006501809166019091670108950E94330355
:1013BC00E0916401F09165016091660170916701A3
:1013CC00A0E0B0E00E941A0DAAE0B0E00E94EC0E82
:1013DC00A4E1B0E00C94EC0E0E94BF03E091680114
:1013EC00F091690160916A0170916B01A0E0B0E02D
:1013FC0080E09FE308950E94EB0DE0936801F09369
:10140C00690160936A0170936B010895A091680162
:10141C00B091690180916A0190916B010895E0E0AF
:10142C00F0E068EC72E40895E0916401F0916501DC
:10143C006091660170916701A0E0B0E080E89FE3E5
:10144C0008950E943303E0916801F0916901609165
:10145C006A0170916B01A4E0B0E00E941A0DAAE041
:10146C00B0E00E94EC0EA4E1B0E00C94EC0EE09322
:10147C006801F093690160936A0170936B010895A0
:10148C000E94BF03E0917001F091710160917201B3
:10149C0070917301A0E0B0E080E09FE30895E093C9
:1014AC007001F09371016093720170937301089550
:1014BC00E0917401F0917501609176017091770162
:1014CC00A0E0B0E080E89FE30E94E40D0895A091B5
:1014DC007001B09171018091720190917301089526
:1014EC000E944D03E0917001F091710160917201C5
:1014FC0070917301A8E0B0E00E941A0DAAE0B0E070
:10150C000E94EC0EA4E1B0E00C94EC0E0E94BF0320
:10151C00E0917401F0917501609176017091770101
:10152C00A0E0B0E080E09FE308950E94EB0DE09313
:10153C007401F093750160937601709377010895AF
:10154C00A0917401B0917501809176019091770111
:10155C000895E0917001F0917101609172017091A8
:10156C007301A0E0B0E080E89FE308950E944D0372
:10157C00E0917401F09175016091760170917701A1
:10158C00ACE0B0E00E941A0DAAE0B0E00E94EC0EB4
:10159C00A4E1B0E00C94EC0EE0937401F0937501AF
:1015AC0060937601709377010895FE01FA93EA93A4
:1015BC000895E0916001F091610160916201709178
:1015CC0063010E94EF0C0895DE010C94FF07E0917B
:1015DC006C01F0916D0160916E0170916F010E9430
:1015EC00EF0C0895E0916401F09165016091660142
:1015FC00709167010895E0916801F0916901609123
:10160C006A0170916B0108950E94EF0C8CE00E94AE
:10161C004607609696CEE0917001F0917101609151
:10162C007201709173010895E0917401F09175014C
:10163C0060917601709177010895A0916001B0914D
:10164C00610180916201909163010E94CC0E08951A
:10165C00A0916C01B0916D0180916E0190916F0120
:10166C000E94CC0E08952497E1E0F0E060E070E079
:10167C000E94EA0C08950E94E50CA139E1E0BE0736
:10168C00E0E08E07E0E09E0708950E94E00CEF5F1B
:10169C00FF4F6F4F7F4F0E94EA0C0895AAE0B0E015
:1016AC000C94EC0E0E941A0DF9CFED91FD91319630
:1016BC00FE93EE930895AC81BD818E819F81E0E015
:1016CC00F0E060E271E40E943A0EEC83FD836E83DD
:1016DC007F830895EC81FD816E817F81AC85BD8512
:1016EC008E859F850E94CC0E0895AC85BD858E8518
:1016FC009F850895EDECFCEC6CEC7DE30E943A0EBA
:10170C00EC87FD876E877F873F5F0895E0E0F0E010
:10171C0060E271E40E943A0E0895EC87FD876E87B3
:10172C007F870895A0E0B0E080E09FE30E94EB0D7E
:10173C000895EDECFCEC6CEC7DE30E943A0E089500
:10174C00A885B9851196A887B98711970895E02FB8
:10175C00E05DEC93E02F0895FF27662777270E9422
:10176C00B10D08950E94F90C0E94E40D0895E885CE
:10177C00F9853196E887F98708952A93AF81B88562
:10178C00E985FA8509950895FE01E65AFF4F0E94F6
:10179C00D40C08953497DE01A65ABF4FED93FC93F9
:1017AC000895AF81B885E985FA8509950895DE011C
:1017BC00A65ABF4F0E94DA0C0895E6DFEBCFEA85FC
:1017CC00FB856C857D850895EE87FF87AE85BF858B
:1017DC000E9472081E2F0895E88BF98B6A8B7B8B05
:1017EC0008950B7FED89EA93DE01A95ABF4F0E9441
:1017FC00DA0CFE01E75AFF4F0E94D40C09955030C9
:10180C000895E889F9896A897B898FCD0E9421081E
:10181C00A0E30C9426080E94A1070C942108EE81E9
:10182C00FF81FA93EA930895E987FA876B877C879F
:10183C000895AE81BF811196AE83BF831197089531
:10184C00AA81BB818C819D810895EA83FB836C8383
:10185C007D830895EA81FB816C817D81A985BA85A0
:10186C008B859C850895A985BA858B859C85089563
:10187C005A934A933A932A931A930A9308955D8143
:10188C004C813B812A81198108810895AC0FBD1FC1
:10189C0005900D928A95E1F708950024AF0DB01DC7
:1018AC000895F09560957095E195FF4F6F4F7F4FC0
:1018BC000895FE2FFF0FFF0B6F2F7F2F08956F2FB3
:1018CC00660F660B762F0895FA9FF02DEB9FF00DA7
:1018DC00EA9FE02DF10D0895002498E0AA0F001C5A
:1018EC000E1A10F40E0E01C0A1609A95B9F7EA2FEA
:1018FC00A02D089538D0F0DF0EF4E19508953F93B4
:10190C004F935F9300241124A00130E2AA0FBB1F58
:10191C00881F991F001C111C441F551F0E1A1F0AEB
:10192C00460B570B28F40E0E1F1E461F571F01C0E7
:10193C00A1603A9559F7FD01BC01D001CA015F9134
:10194C004F913F910895E894A7FF02C0A195689428
:10195C00E7FDE195C1DFEA2F0EF4E1950895CFDFA5
:10196C00FD01BC010895E894E7FF02C0E19568947D
:10197C00A7FF04C0A19500F8039400FA0895ED9117
:10198C00FC9111970895ED91FD916D917C911397B8
:10199C000895ED91FD916D917D9108950F920190B7
:1019AC00F081E02D0F9008950F920D90BC91A02D19
:1019BC000F900895E881F9816A817B810895A8814F
:1019CC00B9818A819B810895E883F9836A837B833B
:1019DC0008957A936A93FA93EA9308959A938A9363
:1019EC00BA93AA930895182E862F612D192E972F2E
:1019FC00712D1B2EBF2FF12D1A2EAE2FE12D089518
:101A0C00129602D0BF011297119602D0FE2F119799
:101A1C00E199FECFFF93FFB7F894AEBBBFBBE09A42
:101A2C00EDB3FFBFFF91089507D012960F01FB0194
:101A3C0003D0F0011297089507D01196EF93EF2F72
:101A4C0003D0EF9111970895E19B02C0A895FCCFAC
:101A5C009FB7F894AEBBBFBBE09A8DB3E81719F0F3
:101A6C00EDBBE29AE19A9FBF0895309760407040B9
:101A7C00089500240A160B060806090608953097E7
:101A8C006040704009F070580895552342F4503866
:101A9C0011F4E0FF04C03196691F791F6BF050E818
:101AAC00572711F45F93CFC05F3F31F0660F000CE6
:101ABC0057956795752F08955F9300200AF0CEC057
:101ACC00C7C050E8192E1522880F991F9527550F5E
:101ADC00879550E8072E0522660F771F7527550F3F
:101AEC0067950895689401C0E8945F93F2DF7038AD
:101AFC0018F07F3F08F4A7C056E1571BAAF4519584
:101B0C0058300EF4593030F0EFEFFFEF6FEF7FE706
:101B1C0077F91AC077275523B9F0EE0FFF1F661F10
:101B2C00771F5A95D1F710C07727583028F0EF2F30
:101B3C00F62F672F5850F9CF552331F076956795CE
:101B4C00F795E7955A95D1F700200AF4AADE5F9134
:101B5C000895689401C0E894309760407040B1F0EB
:101B6C00002426F0772312F400949BDE172E7EE1DE
:101B7C00112032F07A95EE0FFF1F661F111CF9CF62
:101B8C00EF2FF62F612D5F938ADF5F9108954F93AE
:101B9C00AF01FD01DA01AB01BC01CA01402D012CE2
:101BAC00142E4F910895EA0FFB1F681F0895E095BE
:101BBC00F0956095EF5FFF4F6F4F08955F9381DF56
:101BCC00903871F150E8152604C05F937ADF903895
:101BDC0039F1703821F1572F591B2BF112F4D7DF43
:101BEC00FACF583118F0AA27BB278827583028F08D
:101BFC00AB2FB82F88275850F9CF552329F086954D
:101C0C00B795A7955A95D9F7502D512572F0CBDF82
:101C1C0038F46795F795E795739513F41FC0B7DF04
:101C2C003EDF5F910895D8F7FBCFEA1BFB0B680BE7
:101C3C0051F010F40094BBDF662392F3EE0FFF1FFC
:101C4C00661F7A95CBF7EE27FF27BF015F910895AA
:101C5C00EFEFFFEF6FE77FEF5F910895EFEFFFEF8F
:101C6C006FE77FE75F9108955F932BDF703859F32F
:101C7C00903849F301240894791F23F424F30020AD
:101C8C003AF3ECCF0F921F932F933F934F9311275F
:101C9C0022279927689FA0018F9F302D410D591F36
:101CAC006B9F300D411D591F8E9F27D0BF9F25D094
:101CBC006A9F23D0BE9F1DD0AF9F1BD0AE9F110D2E
:101CCC00291F391F491F591FE32FF42F652F522F3E
:101CDC004F913F912F911F910F9066232AF0550F32
:101CEC00EE1FFF1F661F02C073954BF2CEDE5F9195
:101CFC000895100D211D391F02C0200D311D491FE3
:101D0C00591F08955F93DDDE703821F411200AF419
:101D1C009FCFA4CF903809F496CF01240894970B49
:101D2C001BF4D4F30020F3CF792F1F932F933F9301
:101D3C004F931124112722273327A90190E2AE17C4
:101D4C00BF078607410730F0AE1BBF0B860B410B5C
:101D5C00089401C08894551F221F331F111CAA1F01
:101D6C00BB1F881F441F9A9551F7F901612D4F91A4
:101D7C003F912F911F91662332F0550FEE1FFF1FDD
:101D8C00661F7A954BF281DE5F91089599239AF044
:101D9C00772342F0971748F029F4AE17BF07860750
:101DAC0020F031F0989488940895989408940895AC
:101DBC001894889408957723C2F7971798F3A9F786
:101DCC00EA17FB07680788F399F3ECCF109639F004
:101DDC00A89580ED97E00197F1F71197C9F7089551
:00000001FF
