:1000000012C0189518951895189518951895189563
:1000100018951895189595C21895189518951895CE
:100020001895189518958FE58DBFC8E3E0E24E2E20
:1000300084E08EBFD4E0F4E05F2EA89584B7082E4C
:10004000877F84BF88E1992781BD91BDEEEFF3E002
:10005000A0E6B0E088278D933197E9F783E389B96B
:1000600080E080BD88E18AB966247894579A8F9A97
:1000700097988E9A96988D9A9598BF9AC798BE9A97
:10008000C6988C9A94988B9A93988A9A9298A49AE4
:10009000AC98A59AAD98A39AAB98A29AAA98A19A5F
:1000A000A998A09AA898BD9AC598BC9AC498B99ADC
:1000B000C198BA9AC298BB9AC398ECE9FBE073D492
:1000C00078D4A0D218D255D1F4D180E090E0ACE63B
:1000D000B0E08D939C93A7EFB3E04D915C91ACE6BB
:1000E000B0E00D911C910417150710F009F03EC106
:1000F000ACE6B0E00D911C91095F1F4FAEE6B0E099
:100100000D931C9381E08093640040916500009101
:100110006400041710F009F024C181E090E0A0E62B
:10012000B0E08D939C93ACE6B0E08D919C91A2E6FB
:10013000B0E08D939C93AEE6B0E04D915C91A2E669
:10014000B0E00D911C910417150710F009F002C1E1
:1001500080E090E0A8E6B0E08D939C93A8E6B0E044
:100160000D911C91033050E0150710F009F096C076
:10017000A8E6B0E00D911C9148E050E039D4AAE621
:10018000B0E00D931C93AAE6B0E00D911C91A2E69D
:10019000B0E04D915C91040F151FAAE6B0E00D93FD
:1001A0001C93AAE6B0E0AD90BD90A5EDB0E0AA0D1D
:1001B000BB1D8C9180937100A1E7B0E08C9180FB16
:1001C000A2E3B0E08C9182F98C93A1E7B0E08C912E
:1001D00081FBA2E3B0E08C9183F98C93A1E7B0E0BE
:1001E0008C9182FBA2E3B0E08C9184F98C93A1E71F
:1001F000B0E08C9183FBA8E3B0E08C9186F98C93FE
:10020000A1E7B0E08C9184FBA8E3B0E08C9187F982
:100210008C93A1E7B0E08C9185FBA2E3B0E08C91D8
:1002200085F98C93A1E7B0E08C9186FBA2E3B0E066
:100230008C9186F98C93A1E7B0E08C9187FBA2E3C7
:10024000B0E08C9187F98C9302E04091680091D4E2
:10025000A0E7B0E00C93A0E7B0E08C9180FBA8E3AE
:10026000B0E08C9181F98C93A0E7B0E08C9181FB98
:10027000A8E3B0E08C9182F98C93A0E7B0E08C9178
:1002800082FBA8E3B0E08C9183F98C93C198C2986B
:10029000C398A8E6B0E046D308F460CFA0E6B0E08B
:1002A0008C9187FBA8E3B0E08C9184F98C93A0E655
:1002B000B0E08C9186FBA8E3B0E08C9185F98C933B
:1002C000A0E6B0E08C9185FBA5E3B0E08C9180F9CD
:1002D0008C93A0E6B0E08C9184FBA5E3B0E08C9118
:1002E00081F98C93A0E6B0E08C9183FBA5E3B0E0AC
:1002F0008C9182F98C93A0E6B0E08C9182FBA5E30F
:10030000B0E08C9183F98C93A0E6B0E08C9181FBF6
:10031000A5E3B0E08C9185F98C93A0E6B0E08C91D8
:1003200080FBA5E3B0E08C9184F98C9391E0A0E68A
:10033000B0E068D382E090E04CD3C498C598A89808
:10034000A998AA98AB98AD98AC98A2E6B0E0EAD28A
:1003500008F4F1CEA4E6B0E08C918F5F8C9308F4A2
:10036000D4CEACE6B0E0DED208F4B5CEAECEF89492
:10037000FFCF88E190E0AAE6B0E08D939C93A2E7DE
:10038000B0E006D4A6EFB3E08C9383E090E0A7EF53
:10039000B3E08D939C93A7EFB3E00D911C91A6EF72
:1003A000B3E04D915527040F151FA7EFB3E00D9350
:1003B0001C93A7EFB3E00D911C9148E050E018D3D7
:1003C000A7EFB3E00D931C9381E090E0A2E6B0E0CC
:1003D0008D939C93A6EFB3E04D915527A2E6B0E034
:1003E0000D911C910417150710F009F061C0809160
:1003F0006200E2E7F0E001E00A93A4EDB0E067D329
:10040000A4EDB0E08C91A8E6B0E08D9388278C93A2
:10041000A8E6B0E00D911C910E511040A8E6B0E0A6
:100420000D931C93A8E6B0E00D911C9148E050E0BC
:10043000DFD2A8E6B0E00D931C93A8E6B0E00D91E2
:100440001C91095F1F4FA6E6B0E00D931C93A8E630
:10045000B0E08D919C91A0E6B0E08D939C93A6E6D0
:10046000B0E04D915C91A0E6B0E00D911C910417B5
:10047000150710F009F017C0ECE1F6E0A0E6B0E0D7
:100480008D919C91AAE6B0E0AD90BD90A5EDB0E055
:10049000AA0DBB1DD4D2AAE6B0E044D2A0E6B0E0DB
:1004A00041D208F4DCCFA2E6B0E03CD208F492CF0F
:1004B000089580E090E0AAE6B0E08D939C9380E000
:1004C0008093F60380E090E0A2E6B0E08D939C93E9
:1004D00080E090E0A8E6B0E08D939C9380E090E00F
:1004E000A6E6B0E08D939C9380E090E0A0E6B0E0BB
:1004F0008D939C93089581E090E0A2E6B0E08D9307
:100500009C93A2E6B0E00D911C910F3F50E01507BF
:1005100010F009F00FC080E0A2E6B0E0AD90BD9011
:10052000A5EDB0E0AA0DBB1D8C93A2E6B0E0FAD118
:1005300008F4E7CF80E090E0A2E6B0E08D939C93D2
:1005400008950F921F922F923F924F925F927F9247
:10055000AF92BF920F931F932F933F934F935F934D
:100560006F937F938F939F93AF93BF93CF93DF93BB
:10057000EF93FF938FB78F938CB1A2E6B0E08D938A
:1005800088278C93E8EAFBE00ED2E3E0F3D1A8E001
:10059000B4E06BD2A5E6B0E00C93E0EBFBE003D255
:1005A000A2E7B0E0E1E6E8D104D21FD0A4DFE1DEAB
:1005B00080DF8F918FBFFF91EF91DF91CF91BF913E
:1005C000AF919F918F917F916F915F914F913F91EB
:1005D0002F911F910F91BF90AF907F905F904F90A0
:1005E0003F902F901F900F901895E0E0F0E0A5E667
:1005F000B0E07BE782D2E1E0F0E0A2E7B0E07BE7A9
:100600008DD20895E0E0F0E0A5E6B0E092D2E1E01E
:10061000F0E0A2E7B0E091E696D208950000000075
:1006200000000000000000000000000000000000CA
:1006300000000000000060FAFA60000000C0E00066
:1006400000E0C00028FEFE28FEFE2800002474D62C
:10065000D65C480062660C18306646000C5EF2BA42
:10066000EC5E1200000020E0C00000000000387CBA
:10067000C6820000000082C67C38000010547C381E
:10068000387C54100010107C7C1010000000010712
:1006900006000000001010101010100000000006EE
:1006A00006000000060C183060C08000387CC6923E
:1006B000C67C3800000242FEFE02020042C68E9A4C
:1006C00092F6660044C6929292FE6C00183868CA90
:1006D000FEFE0A00F4F69292929E8C003C7ED2922C
:1006E000921E0C00C0C08E9EB0E0C0006CFE9292C4
:1006F00092FE6C0060F2929296FC78000000006618
:10070000660000000000016766000000000010386D
:100710006CC6820000242424242424000082C66C99
:100720003810000040C0809ABAE040007CFE82BAD7
:10073000BAF878003E7ED090D07E3E0082FEFE92D7
:1007400092FE6C00387CC68282C6440082FEFE8225
:10075000C67C380082FEFE92BA82C60082FEFE92FD
:10076000B880C000387CC6828ACC4E00FEFE1010D5
:1007700010FEFE00000082FEFE8200000C0E0282CF
:10078000FEFC800082FEFE1038EEC60082FEFE8275
:1007900002060E00FEFE703870FEFE00FEFE6030A7
:1007A00018FEFE007CFE828282FE7C0082FEFE92AB
:1007B00090F060007CFE828287FF7D0082FEFE90CA
:1007C00098FE66000044E6B29ACE440000E0C2FE05
:1007D000FEC2E000FCFE020202FEFC00F8FC060283
:1007E00006FCF800FCFE061C06FEFC00C6EE3810F7
:1007F00038EEC60000E0F21E1EF2E000E2C68E9A5D
:10080000B2E6CE000000FEFE8282000080C06030B2
:10081000180C060000008282FEFE0000103060C04E
:10082000603010000101010101010101000020E020
:10083000C0000000042E2A2A3C1E020082FEFC2278
:10084000223E1C001C3E2222223614001C3E22A204
:10085000FCFE02001C3E2A2A2A3A1800127EFE9252
:1008600090C04000193D25251F3E200082FEFE104D
:10087000203E1E00000022BEBE020000000607014E
:1008800001BFBE0082FEFE081C362200000082FE70
:10089000FE0200003E3E301E303E1E00203E1E2066
:1008A000203E1E001C3E2222223E1C00213F1F250E
:1008B000243C1800183C24251F3F2100223E1E32F4
:1008C00020301000123A2A2A2A2E24002020FCFE72
:1008D000222604003C3E02023C3E0200383C060256
:1008E000063C38003C3E061C063E3C0022361C08F6
:1008F0001C362200393D0505053F3E000032262EFC
:100900003A3226000010107CEE828200000000FEC9
:10091000FE000000008282EE7C10100040C080C00B
:1009200040C08000ED91FC91EF5FFF4FFC93EE9390
:10093000089504D05DD000FC0CD008950024E89404
:1009400057FF02C009D0689400F80BD010F80124BA
:10095000089502D009D00895509540954F5F5F4F9C
:100960000895E89417FF0895009510950F5F1F4FA5
:1009700068940895A8E0B4E012D08D3039F0EE23E9
:10098000D9F38D93EA9563FE17D0F6CF63FC04C0CC
:100990008DE012D08AE010D088278C9308955F9B59
:1009A000FECF8CB108953BD0802D11F005D0FBCF48
:1009B00008958DE001D08AE05D9BFECF8CB908954B
:1009C0003197F1F70895689462F80895E89462F811
:1009D0000895EF93FF93EE27E82BE92B31F0E0ED3C
:1009E000F7E03197F1F70197D1F7FF91EF91089573
:1009F0000F92B801469F8001479F100D569F100D22
:100A00000F900895903051F000240D911C91000F2B
:100A1000111F001D9A95D9F71C930E930895C89540
:100A200031960020089591E005C092E003C094E063
:100A300001C098E0F4DF0D929A95E1F70895E80F70
:100A4000F91FF1CF040F151F261F371F0895000F40
:100A5000111F221F331F0895009510952095309582
:100A60000F5F1F4F2F4F3F4F089500271127222759
:100A700033271DD08A3328F4803318F005D015D0E1
:100A8000F9CF0EF4E9CF089580538F93402F512F63
:100A9000622F732FDCDFDBDFD5DFD9DF8F91992762
:100AA000080F191F291F391F08958D910895E89483
:100AB000FCDF8032E9F38B32D9F38930C9F38D3210
:100AC00011F46894F2CF089588278D9308950991C1
:100AD0009191992359F08A95D9F73197002331F0F4
:100AE00081918D930A958823C9F70895EDCFE199F7
:100AF000FECFEEBBFFBB3196089591E001C092E0BE
:100B00007B3751F47FB7F894F2DF8D918DBBE29A79
:100B1000E19A9A95C9F77FBF77270895E8DF8D910D
:100B20007B3729F48DBBE29AE19A8823B9F77727BE
:100B3000089591E001C092E0DADFE09A8DB38D93E1
:100B40009A95D1F70895D3DFE09A8DB38D938823DA
:100B500019F09A95C1F79D930895FF935527F8E0F2
:100B6000469508F4500F57954795FA95D1F7FF91A0
:100B70000895403059F0002E4150403009F4089556
:100B8000642F402DEADF042F462FF6CF01E00895B1
:100B90008FEF83959D919923E1F7089552756E6EBD
:100BA000696E67202E2E2E0053706561643D200013
:080BB000546578743D2000003B
:00000001FF
