:100000000C942A001895000018950000189500001F
:10001000189500001895000018950000189500002C
:10002000189500001895000018950000189500001C
:10003000189500001895000018950000189500000C
:1000400018950000189500001895000018950000FC
:10005000189500008FE58DBFC8E3E0E24E2E88E0E2
:100060008EBFD8E0F8E05F2EA89584B7082E877F72
:1000700084BF88E1992781BD91BDEEEFF7E0A0E64E
:10008000B0E088278D933197E9F783E389B980E061
:1000900080BD88E18AB96624D498DC98D298DA9831
:1000A000D098D898D198D998D398DB988A9A929872
:1000B000709160007F7770936000A1E6B0E0E0E7A8
:1000C000F3E00E944B0180E080936500A6E6B0E07B
:1000D000E4E7F3E00E944B01C89B0C948F008EE193
:1000E00090E00E943701C89B0C948F00929A81E0A7
:1000F00080936500E5E6F0E0A6E6B0E00E947301BB
:10010000A1E6B0E00E942101A6E6B0E00E94210134
:100110000E94270184E190E00E9437019298CA9BD7
:100120000C94B2008EE190E00E943701CA9B0C94BF
:10013000B200929A82E080936500E5E6F0E0A6E6E0
:10014000B0E00E947301A1E6B0E00E942101A6E6A2
:10015000B0E00E9421010E94270184E190E00E940A
:1001600037019298CC9B0C94D5008EE190E00E94D0
:100170003701CC9B0C94D500929A83E08093650064
:10018000E5E6F0E0A6E6B0E00E947301A1E6B0E08B
:100190000E942101A6E6B0E00E9421010E942701F1
:1001A00084E190E00E9437019298C99B0C94F8007A
:1001B0008EE190E00E943701C99B0C94F800929A5E
:1001C00084E080936500E5E6F0E0A6E6B0E00E94FA
:1001D0007301A1E6B0E00E942101A6E6B0E00E9412
:1001E00021010E94270184E190E00E94370192984A
:1001F000CB9B0C941B018EE190E00E943701CB9BBE
:100200000C941B01929A85E080936500E5E6F0E08E
:10021000A6E6B0E00E947301A1E6B0E00E942101D1
:10022000A6E6B0E00E9421010E94270184E190E04F
:100230000E94370192980C946C00F894FFCFA8E0CC
:10024000B8E08D91882311F005D0FBCF08958DE0A3
:1002500001D08AE05D9BFECF8CB908953197F1F70C
:100260000895689462F80895E89462F80895EF9309
:10027000FF93EE27E82BE92B31F0E0EDF7E0319723
:10028000F1F70197D1F7FF91EF9108950191119145
:100290002191308108950E9451010D920020D9F7DB
:1002A0000895C895319600200895000F111F221F50
:1002B000331F089500951095209530950F5F1F4FBF
:1002C0002F4F3F4F0895019110810FC00E944601AA
:1002D0000EC00E94460110C00191108117FF05C099
:1002E0003FEF2FEF04C0008111272227332737FF6C
:1002F00003C0E0DF8DE28D93CF92DF92EF92AA24CC
:10030000BB24CC24DD24EE2440E2EAE0FF2755E0C4
:1003100093E38081890F87FD9F7083FD907F891B08
:1003200081935A95A9F7C1DFAA1CBB1CCC1CDD1C0C
:10033000EE1C4A9551F7E894EFE0FF2782910BD02D
:10034000EB30E0F71EF068948A2D09D04D93EF90C2
:10035000DF90CF900895982F829501D0892F8F70CC
:10036000805D26F0803309F4089568948D93089594
:06037000313233003000C1
:00000001FF
