:100000000C942A00189500000C94CB001895000061
:10001000189500001895000018950000189500002C
:10002000189500001895000018950000189500001C
:10003000189500001895000018950000189500000C
:1000400018950000189500001895000018950000FC
:10005000189500008FE58DBFC8E3E0E24E2E88E0E2
:100060008EBFD8E0F8E05F2EA89584B7082E877F72
:1000700084BF88E1992781BD91BDEEEFF7E0A0E64E
:10008000B0E088278D933197E9F70E941408662421
:100090008CE00E9462080E94F9070E940501789492
:1000A0008B98939A85B7837F886085BF7BB770688C
:1000B0007BBF86E886B980E487B9379A8E98969A8E
:1000C0008C98949A8D98959A8F9A979880E08093BF
:1000D00081000E94A8020E948D070E941601EDE691
:1000E000F0E00E94E90AE1E7F0E00E94EE0A0E94D7
:1000F000D00A11F40C948400EDE6F0E0A1E7B0E042
:100100000E94AC0A0E9470010E94AA01E8E7F0E098
:100110000E94E90AECE7F0E00E94EE0A0E94D00A91
:1001200011F40C949B00E8E7F0E0ACE7B0E00E942B
:10013000AC0A0E94150200918100013011F00C946C
:10014000AC0080E0809381000E9436020E942B0365
:100150000E9470010E9415028E98A3E8B0E09C9165
:1001600097FF04C0869B10C09F779C9386990CC014
:100170008EE19F9390E00E94AF089F91869904C002
:1001800090689C930E94E80380E0809380000C9428
:100190006D00F894FFCF0F921F922F923F924F92D3
:1001A0005F927F92AF92BF920F931F932F933F93D3
:1001B0004F935F936F937F938F939F93AF93BF936F
:1001C000CF93DF93EF93FF938FB78F9381E080936B
:1001D00081008F918FBFFF91EF91DF91CF91BF9100
:1001E000AF919F918F917F916F915F914F913F91CF
:1001F0002F911F910F91BF90AF907F905F904F9084
:100200003F902F901F900F9018950E94F9078FE74D
:1002100011E00E940808E6E8F8E10E94F207E1E038
:10022000F0E00E940B080E94F9070895AAE6B0E0EA
:100230000D911C910F931F9307B1007E07B90E9487
:10024000A609482F592F1F910F91040F151FAAE6D9
:10025000B0E00D931C93ACE6B0E08C918F5F8C9373
:1002600000916C000A3011F00C946F0180E08093D3
:100270006C00AAE6B0E00D911C914AE050E00E94AB
:10028000D007AAE6B0E04D935C93E6E7F8E10E9460
:10029000D70BEAE6F0E0D190E080FF2400270E942F
:1002A000130B0E94990BEDE0F0E0ADE6B0E00E9488
:1002B000AC0AEAE7F8E10E94D70BEDE6F0E00E9415
:1002C000E90A0E94400BEDE0F0E0ADE6B0E00E94EC
:1002D000AC0A80E090E0AAE6B0E08D939C9308958C
:1002E000ECEFF2E080E40E94620858E0C895802DAF
:1002F0000E945C0831965A95C9F704C0070507208B
:10030000202020208FE719E00E940808E2E9F8E1A8
:100310000E94F207A8E0B8E0AF93BF93EDE6F0E0EB
:100320000E94E90A0E94BE0811E001E0BF91AF916E
:100330000E94FE09E8E0F8E0A8E0B8E00E94A70A01
:100340000E94EA0780E00E945C08E6E9F8E10E946A
:10035000F2070895A5E7B0E00D911C910F931F934C
:1003600007B1007E016007B90E94A609482F592FE6
:100370001F910F91040F151FA5E7B0E00D931C937B
:10038000A7E7B0E08C918F5F8C93009177000A30E3
:1003900011F00C94140280E080937700A5E7B0E0A0
:1003A0000D911C914AE050E00E94D007A5E7B0E013
:1003B0004D935C93E6E7F8E10E94D70BE5E7F0E0A8
:1003C000D190E080FF2400270E94130B0E94990B1C
:1003D000EDE0F0E0A8E7B0E00E94AC0AEEE7F8E15B
:1003E0000E94D70BE8E7F0E00E94E90A0E94400B68
:1003F000EDE0F0E0A8E7B0E00E94AC0AE2E8F8E146
:100400000E94D70BE8E7F0E00E94E90A0E94990BEE
:10041000EDE0F0E0A8E7B0E00E94AC0A80E090E0F8
:10042000A5E7B0E08D939C9308958FEB1BE00E94AD
:100430000808A8E0B8E0AF93BF93E8E7F0E00E94B7
:10044000E90A0E94BE0811E001E0BF91AF910E944D
:10045000FE09E8E0F8E0A8E0B8E00E94A70A0E94E0
:10046000EA07EAE9F8E10E94F20708950E94E90B21
:1004700010ED0E94010C10E00E94010C0E94E90B9B
:1004800011ED0E94010C0E94200CA3E6B0E01C9329
:100490000E94200CA4E6B0E01C930E94200CA5E66C
:1004A000B0E01C930E94200CA6E6B0E01C930E94D2
:1004B000200CA7E6B0E01C930E94200CA8E6B0E058
:1004C0001C930E941E0CA9E6B0E01C930E94F80B3E
:1004D000A5E6B0E08C918F738C93A3E6B0E08C918D
:1004E0008F778C930E94C70208950E94F902A3E6B9
:1004F000B0E08C918F778C93A5E6B0E08C918F73F0
:100500008C930E94E90B10ED0E94010C10E00E94F8
:10051000010C109163000E94010C109164000E9474
:10052000010C109165000E94010C109166000E9460
:10053000010C109167000E94010C109168000E944C
:10054000010C109169000E94010C0E94F80B0895A3
:100550000E94E90B10ED0E94010C10E00E94010CBA
:1005600010E00E94010C0E94F80B8AE090E00E94CB
:10057000AF080E94E90B10ED0E94010C17E00E94E9
:10058000010C10E10E94010C0E94F80B089590915B
:1005900063000E949508A3E6B0E08C9390916400FC
:1005A0000E949508A4E6B0E08C93909165000E94AB
:1005B0009508A5E6B0E08C93909166000E9495089E
:1005C000A6E6B0E08C93909167000E949508A7E69C
:1005D000B0E08C93909168000E949508A8E6B0E086
:1005E0008C93909169000E949508A9E6B0E08C93E5
:1005F0000895809163000E948E08A3E6B0E08C937A
:10060000809164000E948E08A4E6B0E08C938091F3
:1006100065000E948E08A5E6B0E08C93809166008C
:100620000E948E08A6E6B0E08C93809167000E943D
:100630008E08A7E6B0E08C93809168000E948E0837
:10064000A8E6B0E08C93809169000E948E08A9E62C
:10065000B0E08C9308958FE711E00E940808A0E6AF
:10066000B0E0E5E6F0E00E94610AE0E6F0E0A8E034
:10067000B8E00E94A70AE8E0F8E0A0E6B0E01127A1
:10068000222702E033270E94B309A0E6B0E00E94CF
:10069000EC07EEE9F8E10E94F207A0E6B0E0E4E63C
:1006A000F0E00E94610AE0E6F0E0A8E0B8E00E9415
:1006B000A70AE8E0F8E0A0E6B0E01127222702E070
:1006C00033270E94B309A0E6B0E00E94EC07EEE9F0
:1006D000F8E10E94F207A0E6B0E0E3E6F0E00E9455
:1006E000610AE0E6F0E0A8E0B8E00E94A70AE8E0CE
:1006F000F8E0A0E6B0E01127222702E033270E94AD
:10070000B309A0E6B0E00E94EC07E0EAF8E10E943D
:10071000F2078FEB11E00E940808A0E6B0E0E9E6DE
:10072000F0E00E94610AE0E6F0E0A8E0B8E00E9494
:10073000A70AE8E0F8E0A0E6B0E01127222702E0EF
:1007400033270E94B309A0E6B0E00E94EC07E2EA7A
:10075000F8E10E94F207A0E6B0E0E8E6F0E00E94CF
:10076000610AE0E6F0E0A8E0B8E00E94A70AE8E04D
:10077000F8E0A0E6B0E01127222702E033270E942C
:10078000B309A0E6B0E00E94EC07E2EAF8E10E94BB
:10079000F207A0E6B0E0E7E6F0E00E94610AE0E6DA
:1007A000F0E0A8E0B8E00E94A70AE8E0F8E0A0E6E0
:1007B000B0E01127222702E033270E94B309A0E608
:1007C000B0E00E94EC07E0EAF8E10E94F207089529
:1007D0000E948D0780E0809380000E94F9078FE7D8
:1007E00011E00E940808E4EAF8E10E94F207A8E09C
:1007F000B8E0E5E6F0E00E94610A0E94EA07EAEA52
:10080000F8E10E94F2078FEB11E00E940808E2EB8A
:10081000F8E10E94F207869BFECF8E98A3E8B0E035
:100820009C9197FF04C0869B10C09F779C938699EC
:100830000CC08EE19F9390E00E94AF089F91869933
:1008400004C090689C930E94880484990C9453047B
:100850000E947D07A5E6B0E08C918F5F8C9300919C
:100860006500073118F011F00C9438040C943B0427
:1008700080E0809365008FE711E00E940808E4EAB9
:10088000F8E10E94F207A8E0B8E0E5E6F0E00E9497
:10089000610A0E94EA07EAEAF8E10E94F2078AEF99
:1008A00090E00E94AF0885990C9481040E947D0716
:1008B000809165008150809365000091650007314B
:1008C00018F011F00C9466040C94690487E180938D
:1008D00065008FE711E00E940808E4EAF8E10E9451
:1008E000F207A8E0B8E0E5E6F0E00E94610A0E94A5
:1008F000EA07EAEAF8E10E94F2078AEF90E00E9434
:10090000AF0800918000013011F00C940D0408959F
:100910000E948D070E94F9078FE711E00E940808E6
:10092000E0ECF8E10E94F207A8E0B8E0E4E6F0E0CD
:100930000E94610A0E94EA07EAEAF8E10E94F207CF
:100940008FEB11E00E940808E2EBF8E10E94F20749
:100950008E98A3E8B0E09C9197FF04C0869B10C0DE
:100960009F779C9386990CC08EE19F9390E00E94A4
:10097000AF089F91869904C090689C930E942305BC
:1009800084990C94EE040E947D07A4E6B0E08C915B
:100990008F5F8C93009164000B3318F011F00C946E
:1009A000D3040C94D60480E0809364008FE711E0B8
:1009B0000E940808E0ECF8E10E94F207A8E0B8E025
:1009C000E4E6F0E00E94610A0E94EA07EAEAF8E140
:1009D0000E94F2078AEF90E00E94AF0885990C947C
:1009E0001C050E947D078091640081508093640003
:1009F000009164000B3318F011F00C9401050C9475
:100A000004058BE3809364008FE711E00E940808DF
:100A1000E0ECF8E10E94F207A8E0B8E0E4E6F0E0DC
:100A20000E94610A0E94EA07EAEAF8E10E94F207DE
:100A30008AEF90E00E94AF0800918000013011F031
:100A40000C94A80408950E948D070E94F9078FE76F
:100A500011E00E940808E6ECF8E10E94F207A8E025
:100A6000B8E0E3E6F0E00E94610A0E94EA07EAEAE1
:100A7000F8E10E94F2078FEB11E00E940808E2EB18
:100A8000F8E10E94F2078E98A3E8B0E09C9197FFEE
:100A900004C0869B10C09F779C9386990CC08EE102
:100AA0009F9390E00E94AF089F91869904C0906840
:100AB0009C930E94BE0584990C9489050E947D0731
:100AC000A3E6B0E08C918F5F8C93009163000B33B1
:100AD00018F011F00C946E050C94710580E0809371
:100AE00063008FE711E00E940808E6ECF8E10E943D
:100AF000F207A8E0B8E0E3E6F0E00E94610A0E9495
:100B0000EA07EAEAF8E10E94F2078AEF90E00E9421
:100B1000AF0885990C94B7050E947D07809163000A
:100B2000815080936300009163000B3318F011F043
:100B30000C949C050C949F058BE3809363008FE7D6
:100B400011E00E940808E6ECF8E10E94F207A8E034
:100B5000B8E0E3E6F0E00E94610A0E94EA07EAEAF0
:100B6000F8E10E94F2078AEF90E00E94AF0800913E
:100B70008000013011F00C94430508950E948D0708
:100B80000E94F9078FE711E00E940808ECECF8E1F9
:100B90000E94F207A8E0B8E0E9E6F0E00E94610AEE
:100BA0000E94EA07EAEAF8E10E94F2078FEB11E0FF
:100BB0000E940808E2EBF8E10E94F2078E98A3E891
:100BC000B0E09C9197FF04C0869B10C09F779C93D8
:100BD00086990CC08EE19F9390E00E94AF089F9190
:100BE000869904C090689C930E94590684990C943D
:100BF00024060E947D07A9E6B0E08C918F5F8C935C
:100C000000916900033618F011F00C9409060C9459
:100C10000C0680E0809369008FE711E00E940808CD
:100C2000ECECF8E10E94F207A8E0B8E0E9E6F0E0B9
:100C30000E94610A0E94EA07EAEAF8E10E94F207CC
:100C40008AEF90E00E94AF0885990C9452060E94AA
:100C50007D0780916900815080936900009169004F
:100C6000033618F011F00C9437060C943A0683E61C
:100C7000809369008FE711E00E940808ECECF8E12E
:100C80000E94F207A8E0B8E0E9E6F0E00E94610AFD
:100C90000E94EA07EAEAF8E10E94F2078AEF90E090
:100CA0000E94AF0800918000013011F00C94DE0525
:100CB00008950E948D070E94F9078FE711E00E94B6
:100CC0000808E2EDF8E10E94F207A8E0B8E0E8E6E3
:100CD000F0E00E94610A0E94EA07EAEAF8E10E9455
:100CE000F2078FEB11E00E940808E2EBF8E10E94A6
:100CF000F2078E98A3E8B0E09C9197FF04C0869B12
:100D000010C09F779C9386990CC08EE19F9390E0D2
:100D10000E94AF089F91869904C090689C930E949E
:100D2000F10684990C94BF060E947D07A8E6B0E006
:100D30008C918F5F8C93009168000C3018F011F04B
:100D40000C94A4060C94A70680E0809368008FE7BB
:100D500011E00E940808E2EDF8E10E94F207A8E025
:100D6000B8E0E8E6F0E00E94610A0E94EA07EAEAD9
:100D7000F8E10E94F2078AEF90E00E94AF0885999F
:100D80000C94EA060E947D07809168008150809350
:100D9000680000916800013010F00C94D2068CE0DD
:100DA000809368008FE711E00E940808E2EDF8E107
:100DB0000E94F207A8E0B8E0E8E6F0E00E94610ACD
:100DC0000E94EA07EAEAF8E10E94F2078AEF90E05F
:100DD0000E94AF0800918000013011F00C94790658
:100DE00008950E948D070E94F9078FE711E00E9485
:100DF0000808EAEDF8E10E94F207A8E0B8E0E7E6AB
:100E0000F0E00E94610A0E94EA07E2E9F8E10E942C
:100E1000F2078FEB11E00E940808E2EBF8E10E9474
:100E2000F207869BFECF86990C941D070E948D07C2
:100E30000E94750281E08093800084990C944B0796
:100E40000E947D07A7E6B0E08C918F5F8C930091A4
:100E500067000F3118F011F00C9430070C94330731
:100E600081E0809367008FE711E00E940808EAEDB7
:100E7000F8E10E94F207A8E0B8E0E7E6F0E00E949F
:100E8000610A0E94EA07EAEAF8E10E94F2078AEFA3
:100E900090E00E94AF0885990C9476070E947D0728
:100EA0008091670081508093670000916700013056
:100EB00010F00C945E078FE1809367008FE711E0DC
:100EC0000E940808EAEDF8E10E94F207A8E0B8E005
:100ED000E7E6F0E00E94610A0E94EA07EAEAF8E128
:100EE0000E94F2078AEF90E00E94AF080091800014
:100EF000013011F00C94130708958F9AEAEFF0E097
:100F000084E690E00197979A0E949F0897980E9424
:100F10009F08482F492BB1F708958F9AE4EFF1E02D
:100F200084E690E00197979A0E949F0897980E9404
:100F30009F08482F492BB1F708958F9AE0EDF7E00D
:100F40008EE190E00197979A0E949F0897980E94DF
:100F50009F08482F492BB1F7089500FC10D0089541
:100F600003D01ED001F8F9CF0024E89457FF02C047
:100F700009D0689400F80BD010F80124089502D02D
:100F800009D00895509540954F5F5F4F0895E894BC
:100F900017FF0895009510950F5F1F4F68940895EF
:100FA000352F242FE894452B11F468940895512F80
:100FB000402F0027112780E1440F551F001F111FEC
:100FC000021B130B416018F4020F131F4E7F8A950A
:100FD00099F70895A8E0B8E08D91882311F06CD0BE
:100FE000FBCF08950E94AF09802D11F065D0FACF94
:100FF000089581E067D015D080E864C08FE7213084
:1010000039F08FEB223021F08FE8233009F08FEC9C
:10101000810F0C94620888EE93E0A1D03197D9F744
:10102000089583E099279BC08AEF90E00E94AF0863
:10103000A29AA39AA49AA59AD79AD59ADD9885E000
:1010400090E00E94AF08DF98AA98AB98AC9AAD9A4E
:10105000DF9AEF93FF93E4ECF0E00E949C08FF918D
:10106000EF91DF9879D0DF9AEF93FF93E4ECF0E013
:101070000E949C08FF91EF91DF986ED0DF9AEF936A
:10108000FF93E4ECF0E00E949C08FF91EF91DF9861
:1010900063D0AD98DF9AEF93FF93E4ECF0E00E9409
:1010A0009C08FF91EF91DF9857D088E20BD08EE03B
:1010B00009D086E007D00895DD9A829505D004D046
:1010C0004BD00895DD98F9CF859510F4AD9A01C005
:1010D000AD98859510F4AC9A01C0AC98859510F444
:1010E000AB9A01C0AB98859510F4AA9A01C0AA9852
:1010F000DF9AEF93FF93E4ECF0E00E949C08FF91ED
:10110000EF91DF980895982F82958F70805D8D9371
:101110009F70905D9D9388278C9308954AE0082FD7
:101120000E94B20A0295802B0895892F8F709051EA
:1011300010F0865FFCCF08953197F1F70895AE2F38
:10114000BF2F11974A2F4B2BE1F70895689462F84F
:101150000895E89462F8089581E090E000C0EF936C
:10116000FF93EE27E82BE92B31F0E0EDF7E0319724
:10117000F1F70197D1F7FF91EF9108958DE207FD07
:101180008D938F2D881F802F881F8F57082F68946D
:10119000F7F8802F87FF15C080958395082F80E38F
:1011A0008D938EE28D93802F815228F080E38D9372
:1011B00099279C93089544270A95802F09F196D08A
:1011C0001FC0805230F09EE49D9381E48D939D93E7
:1011D000EFCF4427DF92EF92FF920F938FE1801BB6
:1011E00011F0082F83D089D09EE29D930F91FF903C
:1011F000EF90DF9044270395003209F4D7CF2BD02E
:101200003F93ECE8F2E138E12F2D1E2D0D2DFF2448
:10121000EE24DD244427000F111F221FA8F42F9273
:101220003F920E94AF09102C0E94AF09202C0E940F
:10123000AF09302C0E94AF093197410DD21CE31C3D
:10124000F01C3F902F9001C0339631963A9519F7D4
:101250003F9107D0AFCFDD0CEE1CFF1C0A95D9F7EC
:101260000895002719E058D08F93802B11F0039533
:1012700001C08F911A95B9F7802F882309F496CF72
:101280008F91805D8D930A95D9F792CF0065CD1D22
:1012900080B2E60E40597307A0ACB90350D6DC010A
:1012A000286BEE0094357700CA9A3B0065CD1D008F
:1012B000B2E60E0059730700ACB90300D6DC01009A
:1012C0006BEE0000357700009A3B0000CD1D00005A
:1012D000E60E000073070000B9030000DC01000007
:1012E000EE000000770000003B000000F694E79459
:1012F000D79447950A95D1F7089500270DD08F937D
:1013000003958F2D8E298D29842BC1F78F91805DB8
:101310008D930A95D9F74CCF1F930F93002710E2B6
:10132000440FDD1CEE1CFF1C001F802F9AE0890B70
:1013300010F0082F43951A9599F7802F0F911F9160
:10134000089501911191219130810895369A36992D
:10135000FECF369A3699FECF84B195B10895C895DF
:101360003196002008952E2E3F2E992781918D329F
:1013700009F093958823D1F79A95E22DF32D112347
:1013800061F0091718F011F0101B01C0191B28F0AB
:1013900021F080E28D931A95E9F780818D3219F45E
:1013A0008D93319604C0222311F08BE28D9309179F
:1013B00038F031F0091B21F080E38D930A95E9F7AD
:1013C00081918D938823E1F7332351F0EA2FFB2F8E
:1013D000319633958E9182933A95E1F78EE28C9314
:1013E000089599278D9193958823E1F79395119608
:1013F0008C9311978E919A95D1F70895EA2FFB2F30
:1014000000244C918D9103948E32E1F711248D913B
:1014100013948823E1F71A94101640F41197202FA3
:101420002119239580E38D932A95E9F7113039F539
:101430009927AE2FBF2FA00DB91FA00FB91F8C91F8
:101440009C93853308F421C031E08E918E32E9F30C
:101450008D3241F0830F8A3319F480E331E001C00B
:1014600033278C93AE1789F7332341F0AE2FBF2F6C
:10147000B8DF81E34D3209F43196808308958827DF
:10148000E00DF81FE00FF81F80830895000F111F73
:10149000221F331F089500951095209530950F5FFA
:1014A0001F4F2F4F3F4F0895019110810CC00E9494
:1014B000A1090BC00191108117FF05C03FEF2FEF6D
:1014C00004C0008111272227332737FF03C0E3DF41
:1014D0008DE28D93CF92DF92EF92AA24BB24CC248D
:1014E000DD24EE2440E2EAE0FF2755E093E380812B
:1014F000890F87FD9F7083FD907F891B81935A958B
:10150000A9F7C4DFAA1CBB1CCC1CDD1CEE1C4A9531
:1015100051F7E894EFE0FF2782910CD0EB30E0F731
:101520001EF068948A2D0AD088278D93EF90DF9063
:10153000CF900895982F829501D0892F8F70805D6C
:1015400026F0803309F4089568948D93089581916D
:101550008D938823E1F7089594E081918D939A9576
:10156000E1F70895FF93881BF9E0001FFA9511F445
:10157000FF910895881F841B18F4840F8894F5CF79
:101580000894F3CFB7FE089590E8B91611F4D0FE91
:1015900008959FEFD91AE90AF90A09F40395089505
:1015A0000F928F939F93D216E306F4060FB680E84E
:1015B00090E8802795270FBE890739F00FB6892B51
:1015C00087FD02C081E008260FBE9F918F910F908A
:1015D0000895D190E190F190019108952191319178
:1015E000419151910895502F2D2D3E2D4F2D612F5A
:1015F0000895652F90E8440F551F5927990F479577
:101600006078102F90E8FF0C001F0927990FF794BE
:10161000107800380895FF0C90E89027110F9795E7
:10162000F794092F08951127BD2CDE2CEF2CF02EF6
:101630000EE1FF2039F4FE2CED2CDB2CBB240850EE
:10164000C2F752C032F00A95BB0CDD1CEE1CFF1C29
:10165000F9CF98DFE0CF2DEC3CEC4CEC5DE3662756
:101660000FC0B7DFC0DFDD24EE2490E8F92E0FE3D2
:1016700007C0B4DF05C02227332740E251E46627C4
:10168000552351F1002381F1B4DF71F11627005881
:1016900050580894050B18F407FD03C025C007FD3A
:1016A00023C0469537952795F694E794D79425D08F
:1016B000FF202AF0DD0CEE1CFF1C015073F09D2D65
:1016C000969548F0DD203AF4EE202AF491E0D90E08
:1016D0009927E91EF91E9FCF07C09FE7092FF92A16
:1016E0009FEFD92EE92E0895DD24EE24FF24002754
:1016F000112708950FE79FEFF2CF9F929924AA2414
:10170000BB2488E1D216E306F40628F0D21AE30AD5
:10171000F40A089401C08894991CAA1CBB1CDD0C17
:10172000EE1CFF1C8A9571F7D92CEA2CFB2C9F909C
:1017300008955FDFD9F05038C9F016270058952F6B
:1017400090580894091F12F418F40EC008F00EC047
:101750000FD0FF202AF0BB0CDD1CEE1CFF1C02C0CA
:10176000039513F00FDF57CF0C946D0B0C94740B93
:101770009F92FF92EF928D2DFF24EE24DD24BB2457
:1017800093E0849F1001829FB00CD11CE21CF31CDB
:10179000839FD00CE11C2224F21C9A9531F0BD2CC1
:1017A000DE2CEF2CFF248F91ECCF9F9008950E94A8
:1017B000AF09202D0E94AF09302D0E94AF09402DA6
:1017C0000E94AF09502D0895A198A098A998A898B3
:1017D0000895A09AA19803D0A09801D0A19AEF9360
:1017E000FF93E6E0F0E00E949C08FF91EF910895DE
:1017F000A09AA19AF4DFA098989BFECFF0DFA19861
:10180000EECF0894111F01C0110F69F0A09A18F4CF
:101810000000A19802C0A19A00C0E1DFA098989BA7
:10182000FECFDDDFF1CFA09AA198D9DFA098989BD9
:10183000FECFE8949999689462F8D1CF089401C0DA
:101840008894331F11E0A09AA198C9DFA098989BB3
:10185000FECFC5DF889499990894111FA0F7A09A2C
:10186000379510F4A19801C0A19AB9DFA098989B70
:10187000FECFB5DF089500409C40000020410000ED
:101880007A441CC7D1404C6F6164696E67202E2E6C
:101890002E002020000043202000562020003A0087
:1018A00020002F00486F75723D002020202020204E
:1018B000200053657474696E67204D6F6465000085
:1018C0004D696E3D00005365633D000059656172CE
:1018D0003D004D6F6E74683D00004461793D00002D
:00000001FF
