:080000000C9457000C94000061
:100008000C9400000C9400000C9400000C94000068
:100018000C9400000C9400000C9400000C94000058
:100028000C9400000C9400000C9400000C94000048
:100038000C9400000C9400000C9400000C94000038
:100048000C9400000C9400000C9400001027E803A6
:1000580064000A0001000010000110000100000007
:100068000000A0405374617475733A200025200085
:10007800536574706F696E743A200058000001006F
:100088002D4E414E00494E46000080C0010002003E
:100098006600040078016800010080018600020003
:1000A800840192000000F894EE27ECBBF1E0F5BF64
:1000B800E5BFF8E1F1BDE1BD8DE0A2E0BB27ED931E
:1000C8008A95E9F780E098E0A0E6ED930197E9F7D3
:1000D800E4E9F0E085919591009761F0A591B591DB
:1000E80005901590BF01F00105900D920197E1F779
:1000F800FB01F0CFEFE5EDBFE8E0EEBFC0E6D1E0F1
:100108000C949500AA93E881E064E7B98BE18A959D
:10011800F1F7369A349BFECF349AE4B1F5B10C94DA
:1001280070038D98959A8E98969A8A98929A8F9A33
:100138009698A49AAC98E0E4E7B9E4E8E6B9A0E1B7
:100148000E944303D5D086990CC00E94C7038699A4
:1001580008C00FD141D00E94CB030E94D4030E9453
:10016800DD03869B02C0E89421F803D135D07CD00A
:1001780020FE98D0869902C021FE01C00BC00E94C3
:10018800C703869902C021FE01C004C0689421F803
:10019800F0D0D2D0869B02C0E89421F885990AC095
:1001A8000E94C703859906C0F8D0BAD00E94EA0316
:1001B800859BFACF82990AC00E94C703829906C01C
:1001C800ECD0B4D00E94EA03829BFACFA8ECB0E04E
:1001D8000E949A06CBCFFFCFA0E094DF2F016627BD
:1001E80077270E945305DF01CB01E7E1F7EB61E5D3
:1001F8007EE30E94F203A0917001B0917101809199
:10020800720190917301E0E0F0E06AE774E40E9403
:10021800F2030E94FD030E94CB030E9486057F9390
:100228006F93FF93EF930E94FD03E0917801F091A3
:10023800790160917A0170917B010E948605A0E0A6
:10024800B0E088EC92E40E942A06AF91BF918F91AA
:100258009F910E94DC05E0937C01F0937D016093FF
:100268007E0170937F010895E0917C01F0917D01FA
:1002780060917E0170917F010E940604A0E00E94B7
:10028800F302ACE6B0E00E941104E72D0E941B04C3
:100298000E940604A1E00E94F302A8E7B0E00E94D1
:1002A80011040895672CE72DE3509E2EE62D0E9439
:1002B80021040E941B040E9494060E2E0E94210411
:1002C800E0E0F0E068EC72E40E948E06E02121F0A4
:1002D800979A77D04ED00BC0E92D0E9421040E9436
:1002E8001B040E946E0611F008F001C0979808954B
:1002F800A0E0B0E00E94BA047E2EA1E0B0E00E9427
:10030800B2040E94D40307C0E72DA0E0B0E00E9429
:10031800D6040E94DD03AAE0B0E00E949A06089580
:100328007394E4E6E71508F4772408957A94E4E6EC
:10033800E71508F47724089520FC02C0689401C0EA
:10034800E89420F820FE0BC0EFE0EA93A0E00E94BA
:10035800F302A3E8B0E00E943003979809C0EFE0E9
:10036800EA93A0E00E94F302A3E7B0E00E94300302
:1003780008950E942A040139E1E01E0768F4AC9A46
:1003880084EF91E00197F1F7AC9884EF91E0019741
:10039800F1F70F5F1F4FEFCF27C00E942A040139E2
:1003A800E1E01E0768F4AC9A80E991E00197F1F763
:1003B800AC9880E991E00197F1F70F5F1F4FEFCFFD
:1003C80013C00E942A040536E0E01E0768F4AC9AC0
:1003D80088EE93E00197F1F7AC9888EE93E00197E7
:1003E800F1F70F5F1F4FEFCF099119910895BA9355
:1003F800AA932497E0E0E883E983EA83EFE3EB83B9
:100408001A930A93EB85FC85EF3FAFEFFA0739F4AF
:100418000E942F04A8E8B0E00E94BA03ABC0EF3FE7
:10042800AFE7FA0739F40E942F04A9E8B0E00E9468
:10043800BA03A0C0AC85AA2362F4E985FA856B8566
:100448007C850E94E7040E9434040E943904EDE28E
:10045800EC93A885A73010F0E6E0E8871885E12F2F
:100468001150E03039F00E9440040E9445040E9477
:100478004C04F5CF0E9451040E948D050E9434045B
:1004880010E0E0E0F0E060E87FE30E944C040E94A6
:1004980051040E946E0688F00E9440040E945A048B
:1004A8000E944C041F5F173238F00E942F04ADE8F9
:1004B800B0E00E94BA035EC0EACF103029F40E946F
:1004C8003904E0E3EC932CC0E12F1150E03041F106
:1004D8000E9440040E944504A0E0B0E080E09FE351
:1004E8000E948D05DF01CB010E94A3030E944C04EA
:1004F8000E9451040E942A060E941A050E2F0E948B
:100508003904E02FE05DEC93E02F0E9440040E9444
:100518001B040E94DC050E9461040E946604D4CF7B
:10052800E885E03019F10E943904EEE2EC93E885A1
:10053800E150E887EF5FD1F00E9461040E945A04FD
:100548000E943404E985FA856B857C850E941A052A
:100558000E2F0E943904E02FE05DEC93E02F0E94FB
:1005680061040E941B040E946604E1CFAE81BF8132
:10057800E0E0EC93198108812D960895AA93E8810B
:10058800E07111F0AB9A01C0AB98E881E07211F00C
:10059800AA9A01C0AA98E881E07411F0A99A01C04A
:1005A800A998E881E07811F0A89A01C0A8988DE090
:1005B8008A95F1F7AD9A8DE08A95F1F7AD988DE0BF
:1005C8008A95F1F789C0AA93A881D8DFE881E295D6
:1005D800E883A881D3DF85E88A95F1F77DC0AA93DF
:1005E800E881F0E0EC57FE4FE081A981AE0FEBDF28
:1005F8008980B88022960895A2E00E946B04ACE03E
:10060800E2DFA1E00E946B04E0E0BE2E8E2E08958A
:10061800AA93A881AA3011F08A1448F0E0E0EA937E
:10062800B394AB2DDCDFA881AA3009F455C08394BC
:10063800AF9AA881C8DFAF984FC0BA93AA931A930C
:10064800A981BA81ED91A983BA831E2FE03019F0F0
:10065800A12FDEDFF5CF10C0BA93AA931A93E981D0
:10066800FA813196E983FA833197E4911E2FE030BD
:1006780019F0A12FCDDFF3CF188123960895AA93FF
:10068800A39AA29AA19AA09AA59AA79AA69AAD986F
:10069800AF98AE98A880E881E058E0938601E88199
:1006A800E054E0938701A4E1B0E00E949A060E941A
:1006B80071040E9471040E947104A0E25FDF88EC5B
:1006C80090E00197F1F7A8E27EDFA4E07CDFA5E8DF
:1006D8007ADFA6E078DF90DF219608950E94A004D3
:1006E8007B816A81F981E88177FB770F67FD71600B
:1006F800972F9E5781F078F0983190F4AA27BB275E
:10070800882708948795B795A7959A95D1F7EA23EE
:10071800FB23682305C0E8947727EE27FF27662781
:100728006F77769508F4606877F9A991B9918991FE
:100738009991EA17FB076807790797FB08950E94C4
:10074800A0040E9491040E9472030E94960419F466
:100758000E948C0409C0E6F70E948C04A0E0B0E077
:1007680080E89FE30E94860524960895BA93AA9389
:10077800E991F991A991B991CD0105900D920020C7
:10078800E1F7FC010895AEE1B0E00C949A06E0911F
:100798007001F09171016091720170917301089577
:1007A800E0937401F093750160937601709377017B
:1007B8000895E0917401F09175016091760170914E
:1007C8007701A1E0B0E00E94C60408950E94880164
:1007D8000E943801A6E9B0E00C949A060E942A0605
:1007E800E0937001F093710160937201709373014B
:1007F8000895A0917401B09175018091760190914E
:10080800770108950E949B04E0E0EA93A0E6B1E036
:100818000E94FB01E0E0EA9308950E943003A0E6FD
:10082800B1E00E942103A5E7B0E00C943003FF2754
:10083800662777270E9453050895A0917C01B091FF
:100848007D0180917E0190917F0108951A930A930A
:1008580001E010E00895EE81FF81FA93EA9308958C
:10086800E987FA876B877C870895AE81BF811196E7
:10087800AE83BF8311970895AA81BB818C819D8126
:100888000895EDECFCEC6CEC7DE30E94DC0508952A
:10089800EA83FB836C837D830895EA81FB816C8105
:1008A8007D81A985BA858B859C850895E0E0F0E077
:1008B80060E271E40E94DC050895A985BA858B85FC
:1008C8009C8508950E94A5040E948605C9CF0E94B0
:1008D800E702A3E0B0E00C949A06A0E30E94C202EB
:1008E80088EC90E00197F1F70895F0956095709580
:1008F800E195FF4F6F4F7F4F0895FE2FFF0FFF0BBE
:100908006F2F7F2F08956F2F660F660B762F089530
:10091800E881F9816A817B810895A881B9818A81FA
:100928009B810895E883F9836A837B8308957A938A
:100938006A93FA93EA9308959A938A93BA93AA9337
:100948000895182E862F612D192E972F712D1B2E85
:10095800BF2FF12D1A2EAE2FE12D0895129602D039
:10096800BF011297119602D0FE2F1197E199FECF81
:10097800FF93FFB7F894AEBBBFBBE09AEDB3FFBFE0
:10098800FF91089507D012960F01FB0103D0F001E3
:100998001297089507D01196EF93EF2F03D0EF9198
:1009A80011970895E19B02C0A895FCCF9FB7F894D2
:1009B800AEBBBFBBE09A8DB3E81719F0EDBBE29A66
:1009C800E19A9FBF089530976040704009F07058D1
:1009D8000895552342F4503811F4E0FF04C03196CD
:1009E800691F791F6BF050E8572711F45F93CFC048
:1009F8005F3F31F0660F000C57956795752F089586
:100A08005F9300200AF0CEC0C7C050E8192E152207
:100A1800880F991F9527550F879550E8072E0522AF
:100A2800660F771F7527550F67950895689401C05D
:100A3800E8945F93F2DF703818F07F3F08F4A7C09E
:100A480056E1571BAAF4519558300EF4593030F03E
:100A5800EFEFFFEF6FEF7FE777F91AC0772755239E
:100A6800B9F0EE0FFF1F661F771F5A95D1F710C018
:100A78007727583028F0EF2FF62F672F5850F9CFE7
:100A8800552331F076956795F795E7955A95D1F7FF
:100A980000200AF42ADF5F910895689401C0E89461
:100AA800309760407040B1F0002426F0772312F4AC
:100AB80000941BDF172E7EE1112032F07A95EE0F9D
:100AC800FF1F661F111CF9CFEF2FF62F612D5F93C3
:100AD8008ADF5F9108954F93AF01FD01DA01AB0101
:100AE800BC01CA01402D012C142E4F910895EA0F24
:100AF800FB1F681F0895E095F0956095EF5FFF4F25
:100B08006F4F08955F9381DF903871F150E8152693
:100B180004C05F937ADF903839F1703821F1572F8C
:100B2800591B2BF112F4D7DFFACF583118F0AA2746
:100B3800BB278827583028F0AB2FB82F8827585064
:100B4800F9CF552329F08695B795A7955A95D9F7E2
:100B5800502D512572F0CBDF38F46795F795E7955E
:100B6800739513F41FC0B7DF3EDF5F910895D8F780
:100B7800FBCFEA1BFB0B680B51F010F40094BBDFB2
:100B8800662392F3EE0FFF1F661F7A95CBF7EE27C9
:100B9800FF27BF015F910895EFEFFFEF6FE77FEF4A
:100BA8005F910895EFEFFFEF6FE77FE75F9108959B
:100BB8005F932BDF703859F3903849F30124089478
:100BC800791F23F424F300203AF3ECCF0F921F93FC
:100BD8002F933F934F93112722279927689FA001AE
:100BE8008F9F302D410D591F6B9F300D411D591F8F
:100BF8008E9F27D0BF9F25D06A9F23D0BE9F1DD030
:100C0800AF9F1BD0AE9F110D291F391F491F591FB8
:100C1800E32FF42F652F522F4F913F912F911F9162
:100C28000F9066232AF0550FEE1FFF1F661F02C0A4
:100C380073954BF2CEDE5F910895100D211D391F7B
:100C480002C0200D311D491F591F08955F93DDDE35
:100C5800703821F411200AF49FCFA4CF903809F4FA
:100C680096CF01240894970B1BF4D4F30020F3CFFC
:100C7800792F1F932F933F934F93112411272227E6
:100C88003327A90190E2AE17BF078607410730F066
:100C9800AE1BBF0B860B410B089401C08894551FEF
:100CA800221F331F111CAA1FBB1F881F441F9A95A0
:100CB80051F7F901612D4F913F912F911F916623B3
:100CC80032F0550FEE1FFF1F661F7A954BF281DE3B
:100CD8005F91089599239AF0772342F0971748F087
:100CE80029F4AE17BF07860720F031F0989488944E
:100CF80008959894089408951894889408957723EB
:100D0800C2F7971798F3A9F7EA17FB07680788F35C
:100D180099F3ECCFDFDFE1E011F008F0EE2708955A
:100D2800D9DFE1E009F008F4EE270895109639F0CC
:100D3800A89580ED97E00197F1F71197C9F7089505
:00000001FF
