:0E000000A9C1FECFFDCFFCCFFBCFFACFF9CFC9
:10000E00F8CFF7CFF6CFF5CFF4CFF3CFF2CFF1CFC6
:10001E00F0CFEFCFEECFEDCF0000000000000000DC
:10002E0000000000000000000000000000000000C2
:10003E00000060FAFA60000000C0E00000E0C000BE
:10004E0028FEFE28FEFE2800002474D6D65C48004A
:10005E0062660C18306646000C5EF2BAEC5E120058
:10006E00000020E0C00000000000387CC6820000C6
:10007E00000082C67C38000010547C38387C541046
:10008E000010107C7C10100000000107060000001C
:10009E0000101010101010000000000606000000E6
:1000AE00060C183060C08000387CC692C67C3800C2
:1000BE00000242FEFE02020042C68E9A92F66600D0
:1000CE0044C6929292FE6C00183868CAFEFE0A0070
:1000DE00F4F69292929E8C003C7ED292921E0C006E
:1000EE00C0C08E9EB0E0C0006CFE929292FE6C007C
:1000FE0060F2929296FC78000000006666000000A6
:10010E000000016766000000000010386CC6820017
:10011E0000242424242424000082C66C38100000FD
:10012E0040C0809ABAE040007CFE82BABAF87800ED
:10013E003E7ED090D07E3E0082FEFE9292FE6C00FD
:10014E00387CC68282C6440082FEFE82C67C38009F
:10015E0082FEFE92BA82C60082FEFE92B880C00077
:10016E00387CC6828ACC4E00FEFE101010FEFE00B9
:10017E00000082FEFE8200000C0E0282FEFC800059
:10018E0082FEFE1038EEC60082FEFE8202060E00D1
:10019E00FEFE703870FEFE00FEFE603018FEFE00A1
:1001AE007CFE828282FE7C0082FEFE9290F06000D7
:1001BE007CFE828287FF7D0082FEFE9098FE6600A6
:1001CE000044E6B29ACE440000E0C2FEFEC2E00059
:1001DE00FCFE020202FEFC00F8FC060206FCF80021
:1001EE00FCFE061C06FEFC00C6EE381038EEC600FD
:1001FE0000E0F21E1EF2E000E2C68E9AB2E6CE00DB
:10020E000000FEFE8282000080C06030180C0600E6
:10021E0000008282FEFE0000103060C060301000D0
:10022E000101010101010101000020E0C0000000F8
:10023E00042E2A2A3C1E020082FEFC22223E1C00B4
:10024E001C3E2222223614001C3E22A2FCFE02007C
:10025E001C3E2A2A2A3A1800127EFE9290C04000B6
:10026E00193D25251F3E200082FEFE10203E1E0059
:10027E00000022BEBE0200000006070101BFBE0044
:10028E0082FEFE081C362200000082FEFE020000E6
:10029E003E3E301E303E1E00203E1E20203E1E00E2
:1002AE001C3E2222223E1C00213F1F25243C18000A
:1002BE00183C24251F3F2100223E1E322030100004
:1002CE00123A2A2A2A2E24002020FCFE222604007E
:1002DE003C3E02023C3E0200383C0602063C380020
:1002EE003C3E061C063E3C0022361C081C362200F4
:1002FE00393D0505053F3E000032262E3A322600D6
:10030E000010107CEE828200000000FEFE00000055
:10031E00008282EE7C10100040C080C040C0800081
:10032E001027E80364000A0001000010000110000D
:10033E0001004F4B00000000000000000000020012
:10034E00600140030000F894EE27ECBBF1E0FBBF28
:10035E00EBBFE5BFF8E1F1BDE1BD8DE0A2E0BB274B
:10036E00ED938A95E9F780E094E0A0E6ED9301978E
:10037E00E9F7ECE4F3E085919591009761F0A59192
:10038E00B59105901590BF01F00105900D92019762
:10039E00E1F7FB01F0CFEFE5EDBFE4E0EEBFC0E625
:1003AE00D1E000C02A978AE0A0E0B0E0E2E4F3E0FA
:1003BE0098D100E010E020E030E050E043E0E0E0D3
:1003CE00EBB9E8E0EAB9E6E8E0BDE0E0E0BDE3E382
:1003DE00E9B9EFEFE7BBE0E0E8BBEFE7E4BBE0E055
:1003EE00E5BBECEFE1BBE0E0E2BB20D1DCD000E00E
:1003FE0010E0E52DD801F0E0EA17FB0708F4D1C0B4
:10040E00F80137969F0151E0451708F4C7C0E1E0A7
:10041E00F0E0E983FA8308871987A885B9852A173A
:10042E003B0708F4B9C0E1E0E883E0E0EE83EF8338
:10043E00AE81BF81139708F058C016D132D1A8856E
:10044E00B985EA0FFB1FEC83FD83E258FE4FE08176
:10045E00EB83E17011F4929801C0929AEB81E270F5
:10046E0011F4939801C0939AEB81E47011F494986F
:10047E0001C0949AEB81E87011F4C69801C0C69A37
:10048E00EB81E07111F4C79801C0C79AEB81E0725D
:10049E0011F4959801C0959AEB81E07411F4969839
:1004AE0001C0969AEB81E07811F4979801C0979A63
:1004BE00E881E17011F4C19801C0C19AE881E2703F
:1004CE0011F4C29801C0C29AE881E47011F4C39885
:1004DE0001C0C39AE881EE0FE88383E08A95F1F7B5
:1004EE00C198C298C398C3D0A3CFC49AC5D0E170A7
:1004FE0011F4AC9801C0AC9ABFD0E270F070E0304D
:10050E0011F4AD9801C0AD9AB7D0E470F070E03040
:10051E0011F4AB9801C0AB9AAFD0E870F070E03038
:10052E0011F4AA9801C0AA9AA7D0E071F070E03039
:10053E0011F4A99801C0A99A9FD0E072F070E03032
:10054E0011F4A89801C0A89A97D0E074F070E0302A
:10055E0011F4C59801C0C59A8FD0E078F070E030E4
:10056E0011F4C49801C0C49A87D0EE0FFF1FE9831F
:10057E00FA83E2E0F0E0FA93EA9387D0AC98AD9874
:10058E00AB98AA98A998A898C598C498E885F985B3
:10059E003196E887F98741CF5F5F36CF0F5F1F4FE8
:1005AE0028CF25CFFFCF2397E0E0E883E983EA83C6
:1005BE0087D010E028E130E000E040E050E0E0E6D7
:1005CE00F1E0FA93EA9346D01E2FE12FED5FA8E0FB
:1005DE00EA9FF0015E2EE0E0E887A885A11718F5E6
:1005EE00E885F0E0E05AFE4F0081E02FEF774E2FC6
:1005FE00552745D0EE83FF8342D03796AE81BF811B
:10060E00EA17FB0760F0D901A258BE4F2DD0EA5D64
:10061E00FF4FE491EC932F5F3F4F29D0EDCFE8854C
:10062E00EF5FE887DACF53D0299608954DD000E0DA
:10063E0010E001E010E00D3BE2E01E0748F4AEE7EB
:10064E00B1E0A00FB11FE0E0EC930F5F1F4FF3CFAF
:10065E0045D00895A991B991EE27FF276D91662394
:10066E0011F03196FBCF0895EE81FF810895FCDFE6
:10067E003196EE83FF830895E981FA810895DA01B8
:10068E005E97E8E0F0E014D00895E991F991309684
:10069E0039F080ED97E00197F1F7A8953197C9F7FA
:1006AE000895EE0FFF1FEE0FFF1FEE0FFF1F0895B1
:1006BE00FA9FF02DEB9FF00DEA9FE02DF10D0895BE
:1006CE005A934A933A932A931A930A9308955D8103
:1006DE004C813B812A8119810881089509911991D4
:1006EE000895AC0FBD1F05900D928A95E1F7089500
:00000001FF
