:100000000C942A00189500000C94B000189500007C
:10001000189500001895000018950000189500002C
:10002000189500001895000018950000189500001C
:10003000189500001895000018950000189500000C
:1000400018950000189500001895000018950000FC
:10005000189500008FE58DBFC8E3E0E24E2E88E0E2
:100060008EBFD8E0F8E05F2EA89584B7082E877F72
:1000700084BF88E1992781BD91BDEEEFF7E0A0E64E
:10008000B0E088278D933197E9F70E94C90766246D
:100090008CE00E9417080E94AE0778948B98939A80
:1000A00085B7837F886085BF7BB770687BBF86E834
:1000B00086B980EC87B9379A8E98969A8C98949ADC
:1000C0008D98959A8F9A979880E0809376000E94F9
:1000D0005D020E9442070E94FB00EDE6F0E00E94F4
:1000E0009E0AE1E7F0E00E94A30A0E94850A11F44B
:1000F0000C948400EDE6F0E0A1E7B0E00E94610A14
:100100000E9455010E948F0100917600013011F08C
:100110000C94910080E0809376000E94EB010E9495
:10012000E0028E98A8E7B0E09C9197FF04C0869B00
:1001300010C09F779C9386990CC08EE19F9390E0AE
:100140000E9464089F91869904C090689C930E94C5
:100150009D0380E0809375000C946B00F894FFCFB2
:100160000F921F922F923F924F925F927F92AF9287
:10017000BF920F931F932F933F934F935F936F9370
:100180007F938F939F93AF93BF93CF93DF93EF931F
:10019000FF938FB78F9381E0809376008F918FBF0D
:1001A000FF91EF91DF91CF91BF91AF919F918F918F
:1001B0007F916F915F914F913F912F911F910F917F
:1001C000BF90AF907F905F904F903F902F901F9087
:1001D0000F9018950E94AE078FE711E00E94BD07AF
:1001E000ECEEF7E10E94A707E1E0F0E00E94C00713
:1001F0000E94AE070895AAE6B0E00D911C910F93FE
:100200001F9307B1007E07B90E945B09482F592F41
:100210001F910F91040F151FAAE6B0E00D931C93D8
:10022000ACE6B0E08C918F5F8C9300916C000A304B
:1002300011F00C94540180E080936C00AAE6B0E0C9
:100240000D911C914AE050E00E948507AAE6B0E0BB
:100250004D935C93E0EEF7E10E948C0BEAE6F0E050
:10026000D190E080FF2400270E94C80A0E944E0B14
:10027000EDE0F0E0ADE6B0E00E94610AE4EEF7E107
:100280000E948C0BEDE6F0E00E949E0A0E94F50AA7
:10029000EDE0F0E0ADE6B0E00E94610A80E090E0C1
:1002A000AAE6B0E08D939C930895E6ECF2E080E43A
:1002B0000E94170858E0C895802D0E9411083196B9
:1002C0005A95C9F704C007050720202020208FE792
:1002D00019E00E94BD07ECEFF7E10E94A707A8E034
:1002E000B8E0AF93BF93EDE6F0E00E949E0A0E9453
:1002F000730811E001E0BF91AF910E94B309E8E0FB
:10030000F8E0A8E0B8E00E945C0A0E949F0780E045
:100310000E941108E0E0F8E10E94A7070895EDE6C9
:10032000F0E00E949E0AE4EEF7E10E948C0B0E942E
:10033000850A10F00C94A6018FEB19E00E94BD070E
:10034000E4E0F8E10E94A7070C94EA01EDE6F0E092
:100350000E949E0AE4EEF7E10E948C0B0E94850A3F
:1003600081E008F480E08F93EDE6F0E00E949E0AC1
:10037000E8EEF7E10E948C0B0E94850A81E010F004
:1003800009F080E09F918923882311F40C94D20115
:100390008FEB19E00E94BD07EEE0F8E10E94A7078D
:1003A0000C94EA01EDE6F0E00E949E0AE8EEF7E127
:1003B0000E948C0B0E94850A18F011F00C94E20147
:1003C0000C94EA018FEB19E00E94BD07E8E1F8E127
:1003D0000E94A70708950E949E0B10ED0E94B60B85
:1003E00010E00E94B60B0E949E0B11ED0E94B60B0E
:1003F0000E94D50BA3E6B0E01C930E94D50BA4E6A7
:10040000B0E01C930E94D50BA5E6B0E01C930E94BF
:10041000D50BA6E6B0E01C930E94D50BA7E6B0E092
:100420001C930E94D50BA8E6B0E01C930E94D30B4E
:10043000A9E6B0E01C930E94AD0BA5E6B0E08C915C
:100440008F738C93A3E6B0E08C918F778C930E948E
:100450007C0208950E94AE02A3E6B0E08C918F77F3
:100460008C93A5E6B0E08C918F738C930E949E0BC9
:1004700010ED0E94B60B10E00E94B60B10916300C5
:100480000E94B60B109164000E94B60B109165009B
:100490000E94B60B109166000E94B60B1091670087
:1004A0000E94B60B109168000E94B60B1091690073
:1004B0000E94B60B0E94AD0B08950E949E0B10ED9A
:1004C0000E94B60B10E00E94B60B10E00E94B60B23
:1004D0000E94AD0B8AE090E00E9464080E949E0B8F
:1004E00010ED0E94B60B17E00E94B60B10E10E94BF
:1004F000B60B0E94AD0B0895909163000E944A08CC
:10050000A3E6B0E08C93909164000E944A08A4E6B0
:10051000B0E08C93909165000E944A08A5E6B0E097
:100520008C93909166000E944A08A6E6B0E08C93F6
:10053000909167000E944A08A7E6B0E08C939091E2
:1005400068000E944A08A8E6B0E08C939091690088
:100550000E944A08A9E6B0E08C9308958091630058
:100560000E944308A3E6B0E08C93809164000E944F
:100570004308A4E6B0E08C93809165000E94430894
:10058000A5E6B0E08C93809166000E944308A6E641
:10059000B0E08C93809167000E944308A7E6B0E02A
:1005A0008C93809168000E944308A8E6B0E08C9389
:1005B000809169000E944308A9E6B0E08C930895F9
:1005C0008FE711E00E94BD07A0E6B0E0E5E6F0E0AD
:1005D0000E94160AE0E6F0E0A8E0B8E00E945C0A9B
:1005E000E8E0F8E0A0E6B0E01127222702E0332798
:1005F0000E946809A0E6B0E00E94A107E2E2F8E1EB
:100600000E94A707A0E6B0E0E4E6F0E00E94160A28
:10061000E0E6F0E0A8E0B8E00E945C0AE8E0F8E07C
:10062000A0E6B0E01127222702E033270E946809E4
:10063000A0E6B0E00E94A107E2E2F8E10E94A7076D
:10064000A0E6B0E0E3E6F0E00E94160AE0E6F0E0A3
:10065000A8E0B8E00E945C0AE8E0F8E0A0E6B0E0BC
:100660001127222702E033270E946809A0E6B0E0A4
:100670000E94A107E4E2F8E10E94A7078FEB11E0D6
:100680000E94BD07A0E6B0E0E9E6F0E00E94160A8D
:10069000E0E6F0E0A8E0B8E00E945C0AE8E0F8E0FC
:1006A000A0E6B0E01127222702E033270E94680964
:1006B000A0E6B0E00E94A107E6E2F8E10E94A707E9
:1006C000A0E6B0E0E8E6F0E00E94160AE0E6F0E01E
:1006D000A8E0B8E00E945C0AE8E0F8E0A0E6B0E03C
:1006E0001127222702E033270E946809A0E6B0E024
:1006F0000E94A107E6E2F8E10E94A707A0E6B0E0A9
:10070000E7E6F0E00E94160AE0E6F0E0A8E0B8E0D4
:100710000E945C0AE8E0F8E0A0E6B0E0112722279A
:1007200002E033270E946809A0E6B0E00E94A1071A
:10073000E4E2F8E10E94A70708950E94420780E0E2
:10074000809375000E94AE078FE711E00E94BD07FD
:10075000E8E2F8E10E94A707A8E0B8E0E5E6F0E0EB
:100760000E94160A0E949F07EEE2F8E10E94A70786
:100770008FEB11E00E94BD07E6E3F8E10E94A707B6
:10078000869BFECF8E98A8E7B0E09C9197FF04C0AF
:10079000869B10C09F779C9386990CC08EE19F9397
:1007A00090E00E9464089F91869904C090689C9391
:1007B0000E943D0484990C9408040E943207A5E627
:1007C000B0E08C918F5F8C9300916500073118F039
:1007D00011F00C94ED030C94F00380E0809365001D
:1007E0008FE711E00E94BD07E8E2F8E10E94A70749
:1007F000A8E0B8E0E5E6F0E00E94160A0E949F0734
:10080000EEE2F8E10E94A7078AEF90E00E946408F8
:1008100085990C9436040E943207809165008150BE
:100820008093650000916500073118F011F00C9479
:100830001B040C941E0487E1809365008FE711E090
:100840000E94BD07E8E2F8E10E94A707A8E0B8E02F
:10085000E5E6F0E00E94160A0E949F07EEE2F8E14A
:100860000E94A7078AEF90E00E946408009175003B
:10087000013011F00C94C20308950E9442070E94B7
:10088000AE078FE711E00E94BD07E4E4F8E10E94A3
:10089000A707A8E0B8E0E4E6F0E00E94160A0E948C
:1008A0009F07EEE2F8E10E94A7078FEB11E00E949C
:1008B000BD07E6E3F8E10E94A7078E98A8E7B0E03D
:1008C0009C9197FF04C0869B10C09F779C9386994C
:1008D0000CC08EE19F9390E00E9464089F918699DE
:1008E00004C090689C930E94D80484990C94A3043B
:1008F0000E943207A4E6B0E08C918F5F8C93009148
:1009000064000B3318F011F00C9488040C948B04E1
:1009100080E0809364008FE711E00E94BD07E4E46B
:10092000F8E10E94A707A8E0B8E0E4E6F0E00E9442
:10093000160A0E949F07EEE2F8E10E94A7078AEFDD
:1009400090E00E94640885990C94D1040E943207BB
:1009500080916400815080936400009164000B33A7
:1009600018F011F00C94B6040C94B9048BE3809346
:1009700064008FE711E00E94BD07E4E4F8E10E9403
:10098000A707A8E0B8E0E4E6F0E00E94160A0E949B
:100990009F07EEE2F8E10E94A7078AEF90E00E942D
:1009A000640800917500013011F00C945D04089505
:1009B0000E9442070E94AE078FE711E00E94BD0728
:1009C000EAE4F8E10E94A707A8E0B8E0E3E6F0E077
:1009D0000E94160A0E949F07EEE2F8E10E94A70714
:1009E0008FEB11E00E94BD07E6E3F8E10E94A70744
:1009F0008E98A8E7B0E09C9197FF04C0869B10C03A
:100A00009F779C9386990CC08EE19F9390E00E9403
:100A100064089F91869904C090689C930E94730516
:100A200084990C943E050E943207A3E6B0E08C91B5
:100A30008F5F8C93009163000B3318F011F00C94CE
:100A400023050C94260580E0809363008FE711E076
:100A50000E94BD07EAE4F8E10E94A707A8E0B8E019
:100A6000E3E6F0E00E94160A0E949F07EEE2F8E13A
:100A70000E94A7078AEF90E00E94640885990C9471
:100A80006C050E943207809163008150809363005F
:100A9000009163000B3318F011F00C9451050C9485
:100AA00054058BE3809363008FE711E00E94BD073C
:100AB000EAE4F8E10E94A707A8E0B8E0E3E6F0E086
:100AC0000E94160A0E949F07EEE2F8E10E94A70723
:100AD0008AEF90E00E94640800917500013011F0E7
:100AE0000C94F80408950E9442070E94AE078FE715
:100AF00011E00E94BD07E0E5F8E10E94A707A8E029
:100B0000B8E0E9E6F0E00E94160A0E949F07EEE2D4
:100B1000F8E10E94A7078FEB11E00E94BD07E6E312
:100B2000F8E10E94A7078E98A8E7B0E09C9197FF94
:100B300004C0869B10C09F779C9386990CC08EE161
:100B40009F9390E00E9464089F91869904C09068EA
:100B50009C930E940E0684990C94D9050E9432073A
:100B6000A9E6B0E08C918F5F8C9300916900033609
:100B700018F011F00C94BE050C94C10580E0809330
:100B800069008FE711E00E94BD07E0E5F8E10E94EF
:100B9000A707A8E0B8E0E9E6F0E00E94160A0E9484
:100BA0009F07EEE2F8E10E94A7078AEF90E00E941B
:100BB000640885990C9407060E94320780916900A9
:100BC00081508093690000916900033618F011F09C
:100BD0000C94EC050C94EF0583E6809369008FE795
:100BE00011E00E94BD07E0E5F8E10E94A707A8E038
:100BF000B8E0E9E6F0E00E94160A0E949F07EEE2E4
:100C0000F8E10E94A7078AEF90E00E946408009133
:100C10007500013011F00C94930508950E9442076D
:100C20000E94AE078FE711E00E94BD07E6E5F8E1FC
:100C30000E94A707A8E0B8E0E8E6F0E00E94160AE4
:100C40000E949F07EEE2F8E10E94A7078FEB11E0F8
:100C50000E94BD07E6E3F8E10E94A7078E98A8E787
:100C6000B0E09C9197FF04C0869B10C09F779C9337
:100C700086990CC08EE19F9390E00E9464089F913A
:100C8000869904C090689C930E94A60684990C944F
:100C900074060E943207A8E6B0E08C918F5F8C93B7
:100CA000009168000C3018F011F00C9459060C9467
:100CB0005C0680E0809368008FE711E00E94BD072A
:100CC000E6E5F8E10E94A707A8E0B8E0E8E6F0E072
:100CD0000E94160A0E949F07EEE2F8E10E94A70711
:100CE0008AEF90E00E94640885990C949F060E9408
:100CF00032078091680081508093680000916800FD
:100D0000013010F00C9487068CE0809368008FE728
:100D100011E00E94BD07E6E5F8E10E94A707A8E000
:100D2000B8E0E8E6F0E00E94160A0E949F07EEE2B3
:100D3000F8E10E94A7078AEF90E00E946408009102
:100D40007500013011F00C942E0608950E944207A0
:100D50000E94AE078FE711E00E94BD07EEE5F8E1C3
:100D60000E94A707A8E0B8E0E7E6F0E00E94160AB4
:100D70000E949F07ECEFF7E10E94A7078FEB11E0BD
:100D80000E94BD07E6E3F8E10E94A707869BFECF1D
:100D900086990C94D2060E9442070E942A0281E0A2
:100DA0008093750084990C9400070E943207A7E68F
:100DB000B0E08C918F5F8C93009167000F3118F039
:100DC00011F00C94E5060C94E80681E0809367002E
:100DD0008FE711E00E94BD07EEE5F8E10E94A7074A
:100DE000A8E0B8E0E7E6F0E00E94160A0E949F073C
:100DF000EEE2F8E10E94A7078AEF90E00E94640803
:100E000085990C942B070E943207809167008150CE
:100E10008093670000916700013010F00C94130775
:100E20008FE1809367008FE711E00E94BD07EEE538
:100E3000F8E10E94A707A8E0B8E0E7E6F0E00E942A
:100E4000160A0E949F07EEE2F8E10E94A7078AEFC8
:100E500090E00E94640800917500013011F00C943C
:100E6000C80608958F9AEAEFF0E084E690E00197D3
:100E7000979A0E94540897980E945408482F492B2B
:100E8000B1F708958F9AE4EFF1E084E690E00197DE
:100E9000979A0E94540897980E945408482F492B0B
:100EA000B1F708958F9AE0EDF7E08EE190E00197B9
:100EB000979A0E94540897980E945408482F492BEB
:100EC000B1F7089500FC10D0089503D01ED001F8AA
:100ED000F9CF0024E89457FF02C009D0689400F8C5
:100EE0000BD010F80124089502D009D00895509530
:100EF00040954F5F5F4F0895E89417FF0895009560
:100F000010950F5F1F4F68940895352F242FE89494
:100F1000452B11F468940895512F402F0027112775
:100F200080E1440F551F001F111F021B130B41606E
:100F300018F4020F131F4E7F8A9599F70895A8E0C1
:100F4000B8E08D91882311F06CD0FBCF08950E94FA
:100F50006409802D11F065D0FACF089581E067D043
:100F600015D080E864C08FE7213039F08FEB223054
:100F700021F08FE8233009F08FEC810F0C941708D3
:100F800088EE93E0A1D03197D9F7089583E09927AF
:100F90009BC08AEF90E00E946408A29AA39AA49A48
:100FA000A59AD79AD59ADD9885E090E00E946408CA
:100FB000DF98AA98AB98AC9AAD9ADF9AEF93FF931B
:100FC000E4ECF0E00E945108FF91EF91DF9879D0B6
:100FD000DF9AEF93FF93E4ECF0E00E945108FF9159
:100FE000EF91DF986ED0DF9AEF93FF93E4ECF0E09F
:100FF0000E945108FF91EF91DF9863D0AD98DF9A7E
:10100000EF93FF93E4ECF0E00E945108FF91EF9121
:10101000DF9857D088E20BD08EE009D086E007D069
:101020000895DD9A829505D004D04BD00895DD98BF
:10103000F9CF859510F4AD9A01C0AD98859510F45F
:10104000AC9A01C0AC98859510F4AB9A01C0AB98EE
:10105000859510F4AA9A01C0AA98DF9AEF93FF939E
:10106000E4ECF0E00E945108FF91EF91DF980895C1
:10107000982F82958F70805D8D939F70905D9D936A
:1010800088278C9308954AE0082F0E94670A0295EA
:10109000802B0895892F8F70905110F0865FFCCFC0
:1010A00008953197F1F70895AE2FBF2F11974A2F6A
:1010B0004B2BE1F70895689462F80895E89462F87C
:1010C000089581E090E000C0EF93FF93EE27E82BB6
:1010D000E92B31F0E0EDF7E03197F1F70197D1F727
:1010E000FF91EF9108958DE207FD8D938F2D881F5D
:1010F000802F881F8F57082F6894F7F8802F87FF5D
:1011000015C080958395082F80E38D938EE28D9393
:10111000802F815228F080E38D9399279C93089526
:1011200044270A95802F09F196D01FC0805230F0D5
:101130009EE49D9381E48D939D93EFCF4427DF92AE
:10114000EF92FF920F938FE1801B11F0082F83D055
:1011500089D09EE29D930F91FF90EF90DF904427FE
:101160000395003209F4D7CF2BD03F93E6EFF1E19E
:1011700038E12F2D1E2D0D2DFF24EE24DD244427D4
:10118000000F111F221FA8F42F923F920E946409A2
:10119000102C0E946409202C0E946409302C0E94AB
:1011A00064093197410DD21CE31CF01C3F902F9035
:1011B00001C0339631963A9519F73F9107D0AFCFDA
:1011C000DD0CEE1CFF1C0A95D9F70895002719E0E5
:1011D00058D08F93802B11F0039501C08F911A95F1
:1011E000B9F7802F882309F496CF8F91805D8D9376
:1011F0000A95D9F792CF0065CD1D80B2E60E405911
:101200007307A0ACB90350D6DC01286BEE0094350F
:101210007700CA9A3B0065CD1D00B2E60E005973F7
:101220000700ACB90300D6DC01006BEE0000357797
:1012300000009A3B0000CD1D0000E60E0000730781
:101240000000B9030000DC010000EE0000007700A0
:1012500000003B000000F694E794D79447950A9568
:10126000D1F7089500270DD08F9303958F2D8E29E8
:101270008D29842BC1F78F91805D8D930A95D9F7C5
:101280004CCF1F930F93002710E2440FDD1CEE1C80
:10129000FF1C001F802F9AE0890B10F0082F439548
:1012A0001A9599F7802F0F911F910895019111912F
:1012B000219130810895369A3699FECF369A369923
:1012C000FECF84B195B10895C89531960020089558
:1012D0002E2E3F2E992781918D3209F093958823E8
:1012E000D1F79A95E22DF32D112361F0091718F02B
:1012F00011F0101B01C0191B28F021F080E28D9322
:101300001A95E9F780818D3219F48D93319604C0D6
:10131000222311F08BE28D93091738F031F0091B6D
:1013200021F080E38D930A95E9F781918D938823CD
:10133000E1F7332351F0EA2FFB2F319633958E914D
:1013400082933A95E1F78EE28C93089599278D91D7
:1013500093958823E1F7939511968C9311978E912D
:101360009A95D1F70895EA2FFB2F00244C918D9187
:1013700003948E32E1F711248D9113948823E1F7C1
:101380001A94101640F41197202F2119239580E309
:101390008D932A95E9F7113039F59927AE2FBF2F94
:1013A000A00DB91FA00FB91F8C919C93853308F431
:1013B00021C031E08E918E32E9F38D3241F0830FFE
:1013C0008A3319F480E331E001C033278C93AE17E0
:1013D00089F7332341F0AE2FBF2FB8DF81E34D32C1
:1013E00009F43196808308958827E00DF81FE00FF7
:1013F000F81F80830895000F111F221F331F0895C7
:1014000000951095209530950F5F1F4F2F4F3F4F40
:101410000895019110810CC00E9456090BC00191E2
:10142000108117FF05C03FEF2FEF04C00081112787
:101430002227332737FF03C0E3DF8DE28D93CF925E
:10144000DF92EF92AA24BB24CC24DD24EE2440E2D8
:10145000EAE0FF2755E093E38081890F87FD9F70C5
:1014600083FD907F891B81935A95A9F7C4DFAA1C3D
:10147000BB1CCC1CDD1CEE1C4A9551F7E894EFE038
:10148000FF2782910CD0EB30E0F71EF068948A2D94
:101490000AD088278D93EF90DF90CF900895982FF2
:1014A000829501D0892F8F70805D26F0803309F4FA
:1014B000089568948D93089581918D938823E1F721
:1014C000089594E081918D939A95E1F70895FF93A3
:1014D000881BF9E0001FFA9511F4FF910895881F09
:1014E000841B18F4840F8894F5CF0894F3CFB7FECB
:1014F000089590E8B91611F4D0FE08959FEFD91A17
:10150000E90AF90A09F4039508950F928F939F93BE
:10151000D216E306F4060FB680E890E880279527F8
:101520000FBE890739F00FB6892B87FD02C081E015
:1015300008260FBE9F918F910F900895D190E19052
:10154000F190019108952191319141915191089526
:10155000502F2D2D3E2D4F2D612F0895652F90E892
:10156000440F551F5927990F47956078102F90E821
:10157000FF0C001F0927990FF79410780038089581
:10158000FF0C90E89027110F9795F794092F089575
:101590001127BD2CDE2CEF2CF02E0EE1FF2039F4AC
:1015A000FE2CED2CDB2CBB240850C2F752C032F0CD
:1015B0000A95BB0CDD1CEE1CFF1CF9CF98DFE0CFB9
:1015C0002DEC3CEC4CEC5DE366270FC0B7DFC0DFD1
:1015D000DD24EE2490E8F92E0FE307C0B4DF05C048
:1015E0002227332740E251E46627552351F1002397
:1015F00081F1B4DF71F11627005850580894050B9B
:1016000018F407FD03C025C007FD23C04695379594
:101610002795F694E794D79425D0FF202AF0DD0C87
:10162000EE1CFF1C015073F09D2D969548F0DD20B7
:101630003AF4EE202AF491E0D90E9927E91EF91E1A
:101640009FCF07C09FE7092FF92A9FEFD92EE92ED8
:101650000895DD24EE24FF240027112708950FE7C5
:101660009FEFF2CF9F929924AA24BB2488E1D2163F
:10167000E306F40628F0D21AE30AF40A089401C03B
:101680008894991CAA1CBB1CDD0CEE1CFF1C8A95BF
:1016900071F7D92CEA2CFB2C9F9008955FDFD9F0CD
:1016A0005038C9F016270058952F90580894091FF4
:1016B00012F418F40EC008F00EC00FD0FF202AF06C
:1016C000BB0CDD1CEE1CFF1C02C0039513F00FDFEA
:1016D00057CF0C94220B0C94290B9F92FF92EF9200
:1016E0008D2DFF24EE24DD24BB2493E0849F100184
:1016F000829FB00CD11CE21CF31C839FD00CE11C18
:101700002224F21C9A9531F0BD2CDE2CEF2CFF2404
:101710008F91ECCF9F9008950E946409202D0E9424
:101720006409302D0E946409402D0E946409502DE7
:101730000895A198A098A998A8980895A09AA1980A
:1017400003D0A09801D0A19AEF93FF93E6E0F0E0D8
:101750000E945108FF91EF910895A09AA19AF4DF99
:10176000A098989BFECFF0DFA198EECF0894111FB0
:1017700001C0110F69F0A09A18F40000A19802C0EE
:10178000A19A00C0E1DFA098989BFECFDDDFF1CFEA
:10179000A09AA198D9DFA098989BFECFE894999938
:1017A000689462F8D1CF089401C08894331F11E087
:1017B000A09AA198C9DFA098989BFECFC5DF889416
:1017C00099990894111FA0F7A09A379510F4A19841
:1017D00001C0A19AB9DFA098989BFECFB5DF08950C
:1017E0000A2820400000204100000842506C61732C
:1017F000652057616974202E2E2E000020200000E5
:101800004320200020204C6F772020200000202043
:101810004E6F726D616C000020204869676820205F
:1018200000003A0020002F00486F75723D00202014
:1018300020202020200053657474696E67204D6F4E
:10184000646500004D696E3D00005365633D000016
:10185000596561723D004D6F6E74683D00004461D2
:04186000793D0000CE
:00000001FF
