:080000000C946A000C949900B5
:100008000C9400000C9400000C9400000C94000068
:100018000C9400000C9400000C9400000C94000058
:100028000C9400000C9400000C9400000C94000048
:100038000C9400000C9400000C9400000C94000038
:100048000C9400000C9400000C9400001027E803A6
:1000580064000A0001000010000110000100000007
:1000680000005374617475733A2053746F702020C4
:100078002020005374617475733A204C65667420AF
:10008800202020005374617475733A2052696768A0
:10009800742020200050574D3D2000202020202093
:1000A8002020200080C001002D4E414E00494E46C0
:1000B800000001000200660002000400680002005F
:1000C8007001AC0001007401AE000000F894EE2746
:1000D800ECBBF1E0F5BFE5BFF8E1F1BDE1BD8DE0B6
:1000E800A2E0BB27ED938A95E9F780E098E0A0E6C7
:1000F800ED930197E9F7EAEBF0E085919591009788
:1001080061F0A591B59105901590BF01F00105909A
:100118000D920197E1F7FB01F0CFEFE5EDBFE8E0C5
:10012800EEBFC0E6D1E00C94A000EA93EFB7689464
:1001380020F8EFBFE991189500E010E0EBB7E06414
:10014800EBBFE3E0E5BFE0E0E4BFE0E4EABFE1E8FD
:10015800EFBDEBE0EEBDE0E0EDBDECBDE7BDE6BD1B
:10016800EBBDEABDE9BDE8BDE9BF8D9A9598BC9A9B
:10017800C498B898C09AB998C19ABA98C29ABB98C4
:10018800C39A8A988D9A9598A09AA8987894BAD084
:10019800CED0772019F4EFEF7E1608F401C0CBD04B
:1001A8000E94BA0220FE3AC0C49A3AD0E8E0E615A6
:1001B80039F4E1E0F0E02F010E94BA028824992482
:1001C800E1E0E61539F4E2E0F0E02F010E94BA021E
:1001D80088249924E4E0E61531F4442455240E9447
:1001E800BA0288249924E2E0E61541F40E94BE028E
:1001F80028F0882499248CD09BD04FD0E3E0E615D2
:1002080041F40E94BE0228F08824992488D090D016
:1002180044D08299CACFC498E89420F8C3CFFFCFBE
:100228006624B09B03C0E1E06E2A04C0B09902C006
:10023800EEEF6E22B19B03C0E2E06E2A04C0B199D2
:1002480002C0EDEF6E22B29B03C0E4E06E2A04C048
:10025800B29902C0EBEF6E22B39B03C0E8E06E2AAE
:1002680004C0B39902C0E7EF6E220895F2013097F7
:1002780021F4A898E0E0F0E00DC0E130A0E0FA0732
:1002880011F4A89805C0E230A0E0FA0729F4A89A6A
:10029800E72DF0E0FBBDEABD0895F201309729F49F
:1002A8000E94C602AAE6B0E011C0E130A0E0FA0759
:1002B80029F40E94C602ABE7B0E008C0E230A0E033
:1002C800FA0731F40E94C602ACE8B0E00E94350299
:1002D800E0E0EA93A1E00E94E901ADE9B0E00E9404
:1002E8003502E72DF0E0FA93EA93A0E6B1E00E9428
:1002F8008C02A0E6B1E00E942602A3EAB0E00E94C8
:1003080035020895A0E10E9459020E94F90108955A
:10031800E5E07E0EE4E0E71509F477240895E5E0CA
:100328007E1AEBEFE71511F4EFEF7E2E089507C064
:100338000E94CB020895E2E37E2E0E94CB02A0E049
:10034800B0E00E94DD027E2E0895FFE0FA95F1F7F5
:100358000895AAB3AF70AABBD99AD898F6DFDA9AEB
:10036800F4DFA9B3DA98F1DFDA9AEFDFDA98A7FDBC
:10037800F5CF0895A07FAB2BABBBDA9A0E94A901F9
:10038800DA980E94A9010895AA93D998AAB3A76FE9
:10039800AABBBBB3BF70A881EDDFA881A295EADF35
:1003A800D99A0C948A02DA9A0E94A901E9B3DA98D8
:1003B8000E94A901E07F08950E94A901F4DFAE2FF1
:1003C800F2DFD998E295EA2B0895AA930E94AD012D
:1003D800E881F0E0E059FE4FE081A981AE0F0E946C
:1003E800C801B980A880229608950E94AD01A2E0B4
:1003F8000E94C8010E94AD01ACE00E94C8010E94A1
:10040800AD01A1E00E94C801E0E0AE2EBE2E089525
:10041800AA93EF93FF93A8816894AA3019F0E894FF
:10042800BD1430F0A394E0E0EA93AA2DCEDF36F0B5
:10043800B3948FDFD89AA8810E94C801FF91EF91E9
:100448000C948A02BA93AA931A93A981BA81ED915E
:10045800A983BA831E2FE03019F0A12FD9DFF5CF79
:1004680010C0BA93AA931A93E981FA813196E98365
:10047800FA833197E4911E2FE03019F0A12FC8DFDD
:10048800F3CF188123960895AA27BB271197F1F770
:100498000895AA93D998AAB3A76FAABBBBB3BF7094
:1004A800A8810E94BE01D99A31C0AA93DA98D89837
:1004B800D880E881E058E0937201E881E054E09345
:1004C80073010E94D4020E94D4020E94D402DCDF8D
:1004D800A0E2DFDFD9DFA8E20E94D902A4E00E94EF
:1004E800D902A5E80E94D902AAB3AF70AABBD99ACB
:1004F8000E94E001E53011F0E0E008C00E94AD0183
:10050800A6E00E94C8010E94F901E1E02196089541
:10051800BA93AA93A991B991E991F99130962AF4DD
:10052800E095F09531966DE26D93E89480E197E25D
:100538000DD088EE93E00AD084E6992707D08AE0A8
:1005480005D06E2F10D066276C9308956627E8179C
:10055800F90720F06395E81BF90BC9F7662311F436
:1005680016F008956894605D6D9308950E943A01AD
:100578000C945101F40131964F01E0E8FEE38E1628
:100588009F060895E0E0EA93A0E00C94E901E72DC6
:10059800A0E0B0E00E94E902AAE0B0E00C94FA0200
:1005A8000E944802A0E30C944D020E94C8010C94DA
:1005B8004802E199FECFFF93FFB7F894AEBBBFBBEB
:1005C800E09AEDB3FFBFFF910895E19B02C0A895A3
:1005D800FCCF9FB7F894AEBBBFBBE09A8DB3E817CA
:1005E80019F0EDBBE29AE19A9FBF0895109639F091
:1005F800A89580ED97E00197F1F71197C9F708954D
:00000001FF
