:020000000C945E
:1000020069000C9499000C9400000C9400000C946C
:1000120000000C9400000C9400000C9400000C945E
:1000220000000C9400000C9400000C9400000C944E
:1000320000000C9400000C9400000C9400000C943E
:1000420000000C9400000C9400000C9400000C942E
:1000520000001027E80364000A00010000100001FC
:1000620010000100000053746F70204D6F746F72A6
:100072000050574D3D20002020202020202020002D
:10008200526F74617465204C656674202000526F53
:100092007461746520526967687420200053746F1C
:1000A20070204D6F746F722020202020200080C0AD
:1000B20001002D4E414E00494E4600000100020053
:1000C200660002007001B00001007401B20000007D
:1000D200F894EE27ECBBF1E0FBBFEBBFE5BFF8E124
:1000E200F1BDE1BD8DE0A2E0BB27ED938A95E9F772
:1000F20080E094E0A0E6ED930197E9F7EEEBF0E003
:1001020085919591009761F0A591B5910590159013
:10011200BF01F00105900D920197E1F7FB01F0CFCD
:10012200EFE5EDBFE4E0EEBFC0E6D1E00C940001E4
:100132000A921A92FA926A937A938A939A93AA9358
:10014200BA93EA93FA93EFB7EA934424B09B03C0BD
:10015200E1E04E2A04C0B09902C0EEEF4E22B19BFC
:1001620003C0E2E04E2A04C0B19902C0EDEF4E2274
:10017200B29B03C0E4E04E2A04C0B29902C0EBEF86
:100182004E22B39B03C0E8E04E2A04C0B39902C0DA
:10019200E7EF4E22E8E0E41519F47BD066247724D9
:1001A200E1E0E41519F47DD066247724E4E0E41557
:1001B20019F496D066247724E2E0E41531F40E9423
:1001C200950218F06624772451D0E3E0E41531F467
:1001D2000E94950218F06624772451D08299B6CFF6
:1001E200C498E991EFBFF991E991B991A9919991D7
:1001F200899179916991F990199009901895EBB7C5
:10020200E064EBBFE3E0E5BFE0E0E4BFE0E4EABFC7
:10021200EFBDEBE0EEBDE0E0EDBDECBDE7BDE6BD60
:10022200EBBDEABDE9BDE8BDE9BF8D9A9598A09AFC
:10023200A898BC9AC498B898C09AB998C19ABA9822
:10024200C29ABB98C39A789404D053D008D0FFCFF7
:10025200FFCFA0E10E9434020E94D40108950E94BF
:10026200D4010E949D02A8E6B0E022C0E5E05E0E45
:10027200E4E0E51509F455240E94A2023FC0E5E03E
:100282005E1AEBEFE51511F4EFEF5E2E0E94A2026B
:1002920035C0A89A689420F80E949D02A2E8B0E0B6
:1002A20007C0A898689420F80E949D02A0E9B0E0D7
:1002B2000E941002E0E0EA93A1E00E94C401A3E7D9
:1002C200B0E00E941002E52DF0E0FA93EA93A0E676
:1002D200B1E00E946702A0E6B1E00E940102089527
:1002E200E89420F80E949D02AFE9B0E00E9410025B
:1002F2000895A0E0B0E00E94CA025E2EAAE0B0E03B
:100302000E94E7020895FFE0FA95F1F70895AAB373
:10031200AF70AABBD99AD898F6DFDA9AF4DFA9B3FC
:10032200DA98F1DFDA9AEFDFDA98A7FDF5CF0895D0
:10033200A07FAB2BABBBDA9A0E948401DA980E94B1
:1003420084010895AA93D998AAB3A76FAABBBBB395
:10035200BF70A881EDDFA881A295EADFD99A0C943B
:100362006502DA9A0E948401E9B3DA980E94840154
:10037200E07F08950E948401F4DFAE2FF2DFD99866
:10038200E295EA2B0895AA930E948801E881F0E0A1
:10039200E059FE4FE081A981AE0F0E94A30199802E
:1003A2008880229608950E948801A2E00E94A301FB
:1003B2000E948801ACE00E94A3010E948801A1E092
:1003C2000E94A301E0E08E2E9E2E0895AA93EF9341
:1003D200FF93A8816894AA3019F0E8949B1430F036
:1003E2008394E0E0EA93A82DCEDF36F093948FDF7A
:1003F200D89AA8810E94A301FF91EF910C94650203
:10040200BA93AA931A93A981BA81ED91A983BA8367
:100412001E2FE03019F0A12FD9DFF5CF10C0BA930B
:10042200AA931A93E981FA813196E983FA83319783
:10043200E4911E2FE03019F0A12FC8DFF3CF18810D
:1004420023960895AA27BB271197F1F70895AA9337
:10045200D998AAB3A76FAABBBBB3BF70A8810E94E9
:100462009901D99A31C0AA93DA98D898B880E881CC
:10047200E058E0937201E881E054E09373010E9436
:10048200C1020E94C1020E94C102DCDFA0E2DFDFE2
:10049200D9DFA8E20E94C602A4E00E94C602A5E833
:1004A2000E94C602AAB3AF70AABBD99A0E94BB012E
:1004B200E53011F0E0E008C00E948801A6E00E9449
:1004C200A3010E94D401E1E021960895BA93AA9370
:1004D200A991B991E991F99130962AF4E095F095B4
:1004E20031966DE26D93E89480E197E20DD088EE4B
:1004F20093E00AD084E6992707D08AE005D06E2FD0
:1005020010D066276C9308956627E817F90720F044
:100512006395E81BF90BC9F7662311F416F00895E9
:100522006894605D6D930895F30131963F01E0E8B0
:10053200FEE36E167F060895E0E0EA93A0E00C94D5
:10054200C401E0E0EA93A1E00E94C401A3E7B0E0A5
:100552000E941002E52DF0E0FA93EA93A0E6B1E0E2
:100562000E946702A0E6B1E00E940102A9E7B0E0A2
:100572000E941002E52DA0E0B0E00E94D60208958C
:100582000E942302A0E30C9428020E94A3010C946F
:100592002302E199FECFFF93FFB7F894AEBBBFBB36
:1005A200E09AEDB3FFBFFF910895E19B02C0A895C9
:1005B200FCCF9FB7F894AEBBBFBBE09A8DB3E817F0
:1005C20019F0EDBBE29AE19A9FBF0895109639F0B7
:1005D200A89580ED97E00197F1F71197C9F7089573
:00000001FF
