:100000000C942A001895000018950000189500001F
:10001000189500001895000018950000189500002C
:10002000189500001895000018950000189500001C
:10003000189500001895000018950000189500000C
:1000400018950000189500001895000018950000FC
:10005000189500008FE58DBFC8E3E0E24E2E88E0E2
:100060008EBFD8E0F8E05F2EA89584B7082E877F72
:1000700084BF88E1992781BD91BDEEEFF7E0A0E64E
:10008000B0E088278D933197E9F70E94F500662448
:100090008CE00E9443010E94E00086E886B980E47B
:1000A00087B9379AE0ECF0E080E40E94430158E021
:1000B000C895802D0E943D0131965A95C9F704C01C
:1000C00020060620202020200E9472000E9490001E
:1000D0000E94A10084EF91E00E9470010C946400E2
:1000E000F894FFCF07B1007E07B90E946202A0E634
:1000F000B0E08D939C93E0EBF7E00E94CB03E0E649
:10010000F0E0D190E080FF2400270E9407030E94C6
:100110008D03EDE0F0E0A2E6B0E00E94C902089590
:10012000E4EBF7E00E94CB03E2E6F0E00E94DD02A0
:100130000E943403EDE0F0E0A6E6B0E00E94C902C0
:1001400008958FE711E00E94EF00E8EBF7E00E94CE
:10015000D9008FEB11E00E94EF00E4ECF7E00E9481
:10016000D900A8E0B8E0AF93BF93E6E6F0E00E94C4
:10017000DD020E947F0111E001E0BF91AF910E947A
:100180007C02E8E0F8E0A8E0B8E00E94C4020E9427
:10019000D10080E00E943D01ECECF7E00E94D90024
:1001A0000895A8E0B8E08D91882311F066D0FBCFC8
:1001B00008950E946B02802D11F05FD0FACF089550
:1001C00081E061D00FD080E85EC08FE7213039F048
:1001D0008FEB223021F08FE8233009F08FEC810F74
:1001E0000C94430183E099277BC08AEF90E00E9442
:1001F0007001A19AA29AA39AA49AA59AA79AAF98D5
:1002000085E090E00E947001AD98A998AA98AB9AF9
:10021000AC9AAD9AEF93FF93E4ECF0E00E94640196
:10022000FF91EF91AD9859D0AD9AEF93FF93E4EC25
:10023000F0E00E946401FF91EF91AD984ED0AD9A2D
:10024000EF93FF93E4ECF0E00E946401FF91EF91E3
:10025000AD9843D0AC98AD9AEF93FF93E4ECF0E007
:100260000E946401FF91EF91AD9837D088E20BD0E6
:100270008EE009D086E007D00895AF9A829505D028
:1002800004D02BD00895AF98F9CF859510F4AC9A8F
:1002900001C0AC98859510F4AB9A01C0AB988595D8
:1002A00010F4AA9A01C0AA98859510F4A99A01C0E1
:1002B000A998AD9AEF93FF93E4ECF0E00E946401FB
:1002C000FF91EF91AD9808953197F1F708956894F3
:1002D00062F80895E89462F8089581E090E000C023
:1002E000EF93FF93EE27E82BE92B31F0E0EDF7E0F9
:1002F0003197F1F70197D1F7FF91EF9108958DE2D2
:1003000007FD8D938F2D881F802F881F8F57082FF3
:100310006894F7F8802F87FF15C080958395082F84
:1003200080E38D938EE28D93802F815228F080E3BD
:100330008D9399279C93089544270A95802F09F15E
:1003400096D01FC0805230F09EE49D9381E48D933F
:100350009D93EFCF4427DF92EF92FF920F938FE1AF
:10036000801B11F0082F83D089D09EE29D930F91BE
:10037000FF90EF90DF9044270395003209F4D7CF28
:100380002BD03F93EEE0F4E038E12F2D1E2D0D2D04
:10039000FF24EE24DD244427000F111F221FA8F4A0
:1003A0002F923F920E946B02102C0E946B02202C15
:1003B0000E946B02302C0E946B023197410DD21CBF
:1003C000E31CF01C3F902F9001C0339631963A9574
:1003D00019F73F9107D0AFCFDD0CEE1CFF1C0A953B
:1003E000D9F70895002719E058D08F93802B11F08A
:1003F000039501C08F911A95B9F7802F882309F4CE
:1004000096CF8F91805D8D930A95D9F792CF006535
:10041000CD1D80B2E60E40597307A0ACB90350D68B
:10042000DC01286BEE0094357700CA9A3B0065CD5D
:100430001D00B2E60E0059730700ACB90300D6DC0C
:1004400001006BEE0000357700009A3B0000CD1DE7
:100450000000E60E000073070000B9030000DC0195
:100460000000EE000000770000003B000000F69462
:10047000E794D79447950A95D1F7089500270DD0B2
:100480008F9303958F2D8E298D29842BC1F78F9102
:10049000805D8D930A95D9F74CCF1F930F9300275A
:1004A00010E2440FDD1CEE1CFF1C001F802F9AE0A1
:1004B000890B10F0082F43951A9599F7802F0F910B
:1004C0001F910895369A3699FECF369A3699FECF07
:1004D00084B195B10895C895319600200895992763
:1004E0008D9193958823E1F7939511968C931197AD
:1004F0008E919A95D1F70895EA2FFB2F00244C9105
:100500008D9103948E32E1F711248D9113948823F9
:10051000E1F71A94101640F41197202F2119239512
:1005200080E38D932A95E9F7113039F59927AE2F9D
:10053000BF2FA00DB91FA00FB91F8C919C938533BD
:1005400008F421C031E08E918E32E9F38D3241F012
:10055000830F8A3319F480E331E001C033278C9391
:10056000AE1789F7332341F0AE2FBF2FB8DF81E3F9
:100570004D3209F43196808308958827E00DF81FE5
:10058000E00FF81F8083089581918D938823E1F710
:10059000089594E081918D939A95E1F70895B7FEBF
:1005A000089590E8B91611F4D0FE08959FEFD91A76
:1005B000E90AF90A09F403950895D190E190F190C0
:1005C0000191089521913191419151910895502FB8
:1005D0002D2D3E2D4F2D612F0895652F90E8440F4E
:1005E000551F5927990F47956078102F90E8FF0CF9
:1005F000001F0927990FF794107800380895FF0C11
:1006000090E89027110F9795F794092F08951127D7
:10061000BD2CDE2CEF2CF02E0EE1FF2039F4FE2C49
:10062000ED2CDB2CBB240850C2F752C032F00A95E7
:10063000BB0CDD1CEE1CFF1CF9CFB1DFE0CF2DECB5
:100640003CEC4CEC5DE366270FC0B7DFC0DFDD2478
:10065000EE2490E8F92E0FE307C0B4DF05C022278F
:10066000332740E251E46627552351F1002381F1FD
:10067000B4DF71F11627005850580894050B18F490
:1006800007FD03C025C007FD23C046953795279574
:10069000F694E794D79425D0FF202AF0DD0CEE1CC9
:1006A000FF1C015073F09D2D969548F0DD203AF423
:1006B000EE202AF491E0D90E9927E91EF91E9FCF6A
:1006C00007C09FE7092FF92A9FEFD92EE92E089539
:1006D000DD24EE24FF240027112708950FE79FEF64
:1006E000F2CF9F929924AA24BB2488E1D216E30674
:1006F000F40628F0D21AE30AF40A089401C0889498
:10070000991CAA1CBB1CDD0CEE1CFF1C8A9571F702
:10071000D92CEA2CFB2C9F9008955FDFD9F050383C
:10072000C9F016270058952F90580894091F12F405
:1007300018F40EC008F00EC00FD0FF202AF0BB0C3A
:10074000DD1CEE1CFF1C02C0039513F028DF57CF01
:100750000C9461030C9468039F92FF92EF928D2D8D
:10076000FF24EE24DD24BB2493E0849F1001829FAC
:10077000B00CD11CE21CF31C839FD00CE11C222482
:10078000F21C9A9531F0BD2CDE2CEF2CFF248F91BA
:10079000ECCF9F9008950E946B02202D0E946B0267
:1007A000302D0E946B02402D0E946B02502D089547
:1007B00000409C4000002041546865726D6F6D657B
:1007C0007465720054656D703D2000004320200068
:00000001FF
