:100000000C942A001895000018950000189500001F
:10001000189500001895000018950000189500002C
:10002000189500001895000018950000189500001C
:10003000189500001895000018950000189500000C
:1000400018950000189500001895000018950000FC
:10005000189500008FE58DBFC8E3E0E24E2E88E0E2
:100060008EBFD8E0F8E05F2EA89584B7082E877F72
:1000700084BF88E1992781BD91BDEEEFF7E0A0E64E
:10008000B0E088278D933197E9F787E489B980E05C
:1000900080BD88E18AB90E94280166248CE00E9414
:1000A00076010E94130186E886B980E487B9379A01
:1000B0000E947E000E94AC00A8E0B8E0AF93BF931E
:1000C000E2E6F0E00E9410030E94B20111E001E0BC
:1000D000BF91AF910E94AF02E8E0F8E0A8E0B8E07D
:1000E0000E94F7020E94F5000E94FD0084EF91E05B
:1000F0000E94A3010C945800F894FFCF07B1007E32
:1001000007B90E949502A0E6B0E08D939C93E6E1CA
:10011000F8E00E94FE03E0E6F0E0D190E080FF24EA
:1001200000270E943A030E94C003EDE0F0E0A2E63F
:10013000B0E00E94FC02EAE1F8E00E94FE03E2E681
:10014000F0E00E9410030E946703EDE0F0E0A6E6F5
:10015000B0E00E94FC0208958FE711E00E942201A6
:10016000EEE1F8E00E940C01A8E0B8E0AF93BF9385
:10017000E6E6F0E00E9410030E94B20111E001E007
:10018000BF91AF910E94AF02E8E0F8E0A8E0B8E0CC
:100190000E94F7020E940401E8E2F8E00E940C01CC
:1001A0008FEB11E00E942201ECE2F8E00E940C01CA
:1001B000A8E0B8E0AF93BF93E2E6F0E00E9410033E
:1001C0000E94B20111E001E0BF91AF910E94AF0225
:1001D000E8E0F8E0A8E0B8E00E94F7020E9404011D
:1001E000E8E2F8E00E940C010895A8E0B8E08D91E3
:1001F000882311F005D0FBCF08958DE001D08AE06F
:100200005D9BFECF8CB90895A8E0B8E08D9188235E
:1002100011F066D0FBCF08950E949E02802D11F050
:100220005FD0FACF089581E061D00FD080E85EC042
:100230008FE7213039F08FEB223021F08FE8233027
:1002400009F08FEC810F0C94760183E099277BC035
:100250008AEF90E00E94A301A09AA19AA29AA39A81
:10026000A59AA79AAF9885E090E00E94A301AD9867
:10027000A898A998AA9AAB9AAD9AEF93FF93E1E157
:10028000F1E00E949701FF91EF91AD9859D0AD9A9E
:10029000EF93FF93E1E1F1E00E949701FF91EF916D
:1002A000AD984ED0AD9AEF93FF93E1E1F1E00E945B
:1002B0009701FF91EF91AD9843D0AB98AD9AEF9332
:1002C000FF93E1E1F1E00E949701FF91EF91AD987A
:1002D00037D088E20BD08EE009D086E007D00895B1
:1002E000AF9A829505D004D02BD00895AF98F9CF5E
:1002F000859510F4AB9A01C0AB98859510F4AA9A35
:1003000001C0AA98859510F4A99A01C0A99885956D
:1003100010F4A89A01C0A898AD9AEF93FF93E1E179
:10032000F1E00E949701FF91EF91AD980895319708
:10033000F1F70895689462F80895E89462F80895D2
:1003400081E090E000C0EF93FF93EE27E82BE92BCC
:1003500031F0EDECFAE03197F1F70197D1F7FF9129
:10036000EF9108958DE207FD8D938F2D881F802FCB
:10037000881F8F57082F6894F7F8802F87FF15C0C4
:1003800080958395082F80E38D938EE28D93802F47
:10039000815228F080E38D9399279C9308954427F8
:1003A0000A95802F09F196D01FC0805230F09EE44C
:1003B0009D9381E48D939D93EFCF4427DF92EF923D
:1003C000FF920F938FE1801B11F0082F83D089D00B
:1003D0009EE29D930F91FF90EF90DF90442703954D
:1003E000003209F4D7CF2BD03F93E4E7F4E038E1B3
:1003F0002F2D1E2D0D2DFF24EE24DD244427000F6C
:10040000111F221FA8F42F923F920E949E02102CCF
:100410000E949E02202C0E949E02302C0E949E026E
:100420003197410DD21CE31CF01C3F902F9001C06E
:10043000339631963A9519F73F9107D0AFCFDD0C3F
:10044000EE1CFF1C0A95D9F70895002719E058D033
:100450008F93802B11F0039501C08F911A95B9F7F6
:10046000802F882309F496CF8F91805D8D930A9514
:10047000D9F792CF0065CD1D80B2E60E40597307C3
:10048000A0ACB90350D6DC01286BEE0094357700A0
:10049000CA9A3B0065CD1D00B2E60E0059730700F5
:1004A000ACB90300D6DC01006BEE0000357700002C
:1004B0009A3B0000CD1D0000E60E0000730700000F
:1004C000B9030000DC010000EE000000770000002E
:1004D0003B000000F694E794D79447950A95D1F72E
:1004E000089500270DD08F9303958F2D8E298D2988
:1004F000842BC1F78F91805D8D930A95D9F74CCFEE
:100500001F930F93002710E2440FDD1CEE1CFF1C0D
:10051000001F802F9AE0890B10F0082F43951A9541
:1005200099F7802F0F911F910895369A3699FECF33
:10053000369A3699FECF84B195B10895C895319613
:100540000020089599278D9193958823E1F793953D
:1005500011968C9311978E919A95D1F70895EA2F61
:10056000FB2F00244C918D9103948E32E1F71124DE
:100570008D9113948823E1F71A94101640F4119783
:10058000202F2119239580E38D932A95E9F71130C7
:1005900039F59927AE2FBF2FA00DB91FA00FB91F96
:1005A0008C919C93853308F421C031E08E918E327A
:1005B000E9F38D3241F0830F8A3319F480E331E09F
:1005C00001C033278C93AE1789F7332341F0AE2F48
:1005D000BF2FB8DF81E34D3209F43196808308954F
:1005E0008827E00DF81FE00FF81F808308958191A0
:1005F0008D938823E1F7089594E081918D939A95E6
:10060000E1F70895B7FE089590E8B91611F4D0FE09
:1006100008959FEFD91AE90AF90A09F40395089594
:10062000D190E190F1900191089521913191419102
:1006300051910895502F2D2D3E2D4F2D612F08954E
:10064000652F90E8440F551F5927990F47956078FB
:10065000102F90E8FF0C001F0927990FF7941078CE
:1006600000380895FF0C90E89027110F9795F794A4
:10067000092F08951127BD2CDE2CEF2CF02E0EE152
:10068000FF2039F4FE2CED2CDB2CBB240850C2F7E4
:1006900052C032F00A95BB0CDD1CEE1CFF1CF9CFDA
:1006A000B1DFE0CF2DEC3CEC4CEC5DE366270FC0F6
:1006B000B7DFC0DFDD24EE2490E8F92E0FE307C09A
:1006C000B4DF05C02227332740E251E466275523D3
:1006D00051F1002381F1B4DF71F116270058505811
:1006E0000894050B18F407FD03C025C007FD23C0BF
:1006F000469537952795F694E794D79425D0FF2013
:100700002AF0DD0CEE1CFF1C015073F09D2D969518
:1007100048F0DD203AF4EE202AF491E0D90E992732
:10072000E91EF91E9FCF07C09FE7092FF92A9FEF07
:10073000D92EE92E0895DD24EE24FF240027112769
:1007400008950FE79FEFF2CF9F929924AA24BB242C
:1007500088E1D216E306F40628F0D21AE30AF40A76
:10076000089401C08894991CAA1CBB1CDD0CEE1CCB
:10077000FF1C8A9571F7D92CEA2CFB2C9F900895C9
:100780005FDFD9F05038C9F016270058952F9058E0
:100790000894091F12F418F40EC008F00EC00FD010
:1007A000FF202AF0BB0CDD1CEE1CFF1C02C00395D1
:1007B00013F028DF57CF0C9494030C949B039F9263
:1007C000FF92EF928D2DFF24EE24DD24BB2493E0D5
:1007D000849F1001829FB00CD11CE21CF31C839FEC
:1007E000D00CE11C2224F21C9A9531F0BD2CDE2C99
:1007F000EF2CFF248F91ECCF9F9008950E949E02D2
:10080000202D0E949E02302D0E949E02402D0E94AB
:100810009E02502D089500409C4000007A44496E8D
:100820007075742856293A0020202000496E707592
:0808300074286D56293A0000FE
:00000001FF
