:1000000012C0189518951895189518951895189563
:10001000189592C0189518951895189518951895D3
:100020001895189518958FE58DBFC0E4E8E34E2E1E
:1000300084E08EBFD4E0F4E05F2EEEEFF3E0A0E6C4
:10004000B0E088278D933197E9F783E389B980E0A1
:1000500080BD88E18AB96624E6E6F3E082D087D0E5
:100060007894BA9AC29884B7877F84BF8FE181BDA4
:1000700087E081BD81B5886081BDC29A88EC90E03F
:1000800086D0C298A89592D0A1E6B0E02C93A0E6C5
:10009000B0E01C93009161000F3F81E008F080E028
:1000A0008F93009160000F3F81E008F080E09F9106
:1000B0008923882309F413C0A1E6B0E08C918F71E5
:1000C0008C93A0E6B0E08C918F738C930BD0C29A86
:1000D00088EC90E05CD0C29880E991E058D0D2CF13
:1000E000F894FFCF8FE78CB985E090E050D0A1E67F
:1000F000B0E08C918CB985E090E049D0A0E6B0E00A
:100100008C918CB985E090E042D00895ECE6F3E064
:1001100028D0A0E2B4E0E1E6F0E0DBD01AD027D0AE
:10012000E6E7F3E01ED0A0E2B4E0E0E6F0E0D1D0F4
:1001300010D01DD01CD008958F939F938FB7339507
:10014000539509F4439591EC92BF9F918FBF8F9186
:100150001895A0E2B4E08D91882311F00BD0FBCF6D
:10016000089596D0802D11F005D0FBCF08958DE035
:1001700001D08AE05D9BFECF8CB908953197F1F7ED
:100180000895689462F80895E89462F80895EF93EA
:10019000FF93EE27E82BE92B31F0E0EDF7E0319704
:1001A000F1F70197D1F7FF91EF9108950F933F93E6
:1001B0004F935F932F923F928F939F938FB78F931D
:1001C00083B78F93826083BF89B78F93816089BF24
:1001D00081EC82BF552744273327483008F047C0B9
:1001E000373324F4829BF8CFF8CF41C04830ECF786
:1001F0008299FCCF33273232D4F5829BFCCF932FE8
:10020000332711272227913110F0969511E0292EDE
:100210002694322C290E990F390E113021F0321507
:1002200034F58299FCCF33270CE03215F0F3829934
:1002300009C08894111F221F3315CCF4829BFCCF78
:10024000332708C00894111F221F331584F48299A4
:10025000FCCF33270A9549F7912F991F221F991F29
:10026000221F25FB17F926FB16F92F7102C01FEF7D
:100270002FEF8F9189BF8F9183BF8F918FBF9F91F8
:100280008F913F902F905F914F913F910F910895E3
:10029000C895319600200895000F111F221F331FAB
:1002A000089500951095209530950F5F1F4F2F4FA3
:1002B0003F4F0895019110810EC00191119121913C
:1002C00030810BC00191108117FF05C03FEF2FEF68
:1002D00004C0008111272227332737FF03C0E1DF45
:1002E0008DE28D93CF93DF93CF92DF92EF92AA248A
:1002F000BB24CC24DD24EE2440E2CAE0DD2755E017
:1003000093E38881890F87FD9F7083FD907F891B10
:1003100089935A95A9F7C0DFAA1CBB1CCC1CDD1C15
:10032000EE1C4A9551F7E894EFE0FF2782910ED03A
:10033000EB30E0F71EF068948A2D0CD088278D935F
:10034000EF90DF90CF90DF91CF910895982F829515
:1003500001D0892F8F70805D26F0803309F40895D5
:1003600068948D930895537461727400416464724B
:100370006573733D0000436F6D6D616E643D0000F9
:00000001FF
