:020000000C945E
:1000020063000C9493000C9400000C9400000C9478
:1000120000000C9400000C9400000C9400000C945E
:1000220000000C9400000C9400000C9400000C944E
:1000320000000C9400000C9400000C9400000C943E
:1000420000000C9400000C9400000C9400000C942E
:1000520000001027E80364000A00010000100001FC
:100062001000010053746F70204D6F746F72005056
:10007200574D3D2000202020202020202000526FBC
:1000820074617465204C656674202000526F74613F
:10009200746520526967687420200053746F702061
:1000A2004D6F746F722020202020200080C001003C
:1000B2002D4E414E000002007001AE00010074019D
:1000C200B0000000F894EE27ECBBF1E0FBBFEBBF01
:1000D200E5BFF8E1F1BDE1BD8DE0A2E0BB27ED9304
:1000E2008A95E9F780E094E0A0E6ED930197E9F7BD
:1000F200E8EBF0E085919591009761F0A591B591BB
:1001020005901590BF01F00105900D920197E1F75E
:10011200FB01F0CFEFE5EDBFE4E0EEBFC0E6D1E0DA
:100122000C940A010A921A92FA926A937A938A9327
:100132009A93AA93BA93EA93FA93EFB7EA93442471
:10014200A0E0B099A1E0A13019F4E1E04E2A04C088
:10015200B09902C0EEEF4E22A0E0B199A1E0A13029
:1001620019F4E2E04E2A04C0B19902C0EDEF4E222A
:10017200A0E0B299A1E0A13019F4E4E04E2A04C053
:10018200B29902C0EBEF4E22A0E0B399A1E0A130F8
:1001920019F4E8E04E2A04C0B39902C0E7EF4E22F8
:1001A200E8E0E41519F480D066247724E1E0E41550
:1001B20019F482D066247724E4E0E41519F4A4D07B
:1001C20066247724E2E0E41531F40E94A80218F0D4
:1001D2006624772456D0E3E0E41531F40E94A802A5
:1001E20018F06624772456D0A0E08299A1E0A130CD
:1001F20009F4A6CFC498E991EFBFF991E991B991B9
:10020200A9919991899179916991F990199009909F
:100212001895EBB7E064EBBFE3E0E5BFE0E0E4BFD5
:10022200E0E4EABFEFBDEBE0EEBDE0E0EDBDECBD2A
:10023200E7BDE6BDEBBDEABDE9BDE8BDE9BF8D9A0C
:100242009598A09AA898BC9AC498B898C09AB99858
:10025200C19ABA98C29ABB98C39A789404D05FD0D4
:1002620009D0FFCFFFCFE0E1EA930E9448020E944B
:10027200EB0108950E94EB010E94B002E6E6F0E075
:1002820022C0E5E05E0EE4E0E51509F455240E9483
:10029200B5024AC0E5E05E1AEBEFE51511F4EFEFA7
:1002A2005E2E0E94B50240C0A89A689420F80E946F
:1002B200B002E0E8F0E007C0A898689420F80E9435
:1002C200B002EEE8F0E0FA93EA930E942702E0E03F
:1002D200EA93E1E0EA930E94DB01E1E7F0E0FA93BE
:1002E200EA930E942702E52DF0E0FA93EA93E0E612
:1002F200F1E0FA93EA930E947C02E0E6F1E0FA93DD
:10030200EA930E941A020895E89420F80E94B0022B
:10031200EDE9F0E0FA93EA930E9427020895A0E043
:10032200B0E00E94F4025E2EEAE0F0E0FA93EA9373
:100332000E94E8020895FFE0FA95F1F70895AAB342
:10034200AF70AABBD99AD898F6DFDA9AF4DFA9B3CC
:10035200DA98F1DFDA9AEFDFDA98A7FDF5CF0895A0
:10036200A07FAB2BABBBDA9A0E949C01DA980E9469
:100372009C010895D998AAB3A76FAABBBBB3BF705B
:10038200A881EEDFA881A295EBDFD99A0C947A02BC
:10039200DA9A0E949C01E9B3DA980E949C01E07FFC
:1003A20008950E949C01F4DFAE2FF2DFD998E29506
:1003B200EA2B08950E94A001E881F0E0E059FE4F87
:1003C200E081A981EA0FEA930E94BB0199808880AB
:1003D200229608950E94A001E2E0EA930E94BB01E6
:1003E2000E94A001ECE0EA930E94BB010E94A001DE
:1003F200E1E0EA930E94BB01E0E08E2E9E2E08957A
:10040200EF93FF93A8816894AA3021F0E894939423
:10041200B91430F48394E0E0EA938A92CBDF2EF0B1
:100422008EDFD89AA881AA93A5DFFF91EF910C9451
:100432007A021A93A981BA81ED91A983BA831E2FF8
:10044200E03019F01A93DCDFF5CF0EC01A93E98180
:10045200FA813196E983FA833197E4911E2FE030D5
:1004620019F01A93CDDFF3CF188123960895AA27A6
:10047200BB271197F1F70895D998AAB3A76FAABB22
:10048200BBB3BF70A8810E94B101D99A32C0DA9879
:10049200D898B880E881E058E0937201E881E0548E
:1004A200E09373010E94DD020E94DD020E94DD02E0
:1004B200DEDFE0E2EA93E0DFDADFE8E20E94E30275
:1004C200E4E00E94E302E5E80E94E302AAB3AF700F
:1004D200AABBD99A0E94D201E53011F0E0E009C02E
:1004E2000E94A001E6E0EA930E94BB010E94EB0198
:1004F200E1E021960895A991B991E991F991309697
:100502002AF4E095F09531966DE26D93E89480E1DE
:1005120097E20DD088EE93E00AD084E6992707D0BF
:100522008AE005D06E2F10D066276C930895662757
:10053200E817F90720F06395E81BF90BC9F7662362
:1005420011F416F008956894605D6D930895F301B7
:1005520031963F01E0E8FEE36E167F060895E0E083
:10056200EA93EA930C94DB01E0E0EA93E1E0EA9398
:100572000E94DB01E1E7F0E0FA93EA930E9427028E
:10058200E52DF0E0FA93EA93E0E6F1E0FA93EA93DC
:100592000E947C02E0E6F1E0FA93EA930E941A02DA
:1005A200E7E7F0E0FA93EA930E942702E52DA0E044
:1005B200B0E00E94000308950E943802E0E3EA934B
:1005C2000C943D02EA930E94BB010C943802E9911B
:1005D200F991309639F080ED97E00197F1F7A895FF
:1005E2003197C9F70895E199FECFFF93FFB7F894C9
:1005F200AEBBBFBBE09AEDB3FFBFFF910895E19B95
:1006020002C0A895FCCF9FB7F894AEBBBFBBE09ADF
:100612008DB3E81719F0EDBBE29AE19A9FBF0895F6
:00000001FF
