:1000000012C0189518951895189518951895189563
:100010001895189518951895189518951895189578
:100020001895189518958FE58DBFC8E3E0E24E2E20
:1000300084E08EBFD4E0F4E05F2EA89584B7082E4C
:10004000877F84BF88E1992781BD91BDEEEFF3E002
:10005000A0E6B0E088278D933197E9F766248FEF0B
:1000600087BB889A899A7FEF78BB919A909A789407
:1000700083E886B980E087B9379A80E090E0A0E60F
:10008000B0E08D939C9380E090E0A2E6B0E08D9389
:100090009C9380E090E0A4E6B0E08D939C9380E098
:1000A0008093660080E090E0A7E6B0E08D939C939B
:1000B00080E090E0A9E6B0E08D939C9381E080938E
:1000C000660000916600083210F009F035C007B1F3
:1000D000007F07B904D1A0E6B0E08D939C93A0E621
:1000E000B0E00D911C9142E050E09AD0A0E6B0E063
:1000F0004D935C93A2E6B0E00D911C91A0E6B0E0B8
:100100004D915C91040F151FA2E6B0E00D931C9376
:10011000A4E6B0E08D919C91D2018D939C9382E0F6
:10012000D8D01ED0229682E0D0D0A6E6B0E08C9146
:100130008F5F8C9308F4C5CFA2E6B0E00D911C91BF
:1001400048E250E06DD0A4E6B0E04D935C9380E0CF
:1001500090E0A2E6B0E08D939C93B0CFF894FFCFEF
:10016000A9E6B0E053D0A881B9810D911C914AE075
:1001700050E056D0A7E6B0E00D931C93EEEFF1E00F
:10018000A7E6B0E08D919C91A8E3B0E0C1D0A9E6CC
:10019000B0E00D911C91013050E0150709F006C048
:1001A0009198909A81E090E07ED00AC0023050E0B1
:1001B000150709F005C0919A909881E090E073D0FE
:1001C000919A909AA881B9810D911C914AE050E0D2
:1001D00027D0A881B9814D935C93A881B9810D91F5
:1001E0001C91003050E0150709F007C080E090E056
:1001F000A9E6B0E08D939C9301C0B2CF0895C0F9F9
:10020000A4B0999282F88090BF7FC700ED91FC91D5
:10021000EF5FFF4FFC93EE93089500FC10D008951C
:1002200003D01ED001F8F9CF0024E89457FF02C094
:1002300009D0689400F80BD010F80124089502D07A
:1002400009D00895509540954F5F5F4F0895E89409
:1002500017FF0895009510950F5F1F4F689408953C
:10026000352F242FE894452B11F468940895512FCD
:10027000402F0027112780E1440F551F001F111F39
:10028000021B130B416018F4020F131F4E7F8A9557
:1002900099F708953197F1F70895689462F80895F1
:1002A000E89462F80895EF93FF93EE27E82BE92B8B
:1002B00031F0EAEFF0E03197F1F70197D1F7FF91D4
:1002C000EF910895481A590A0895481A8827580A3C
:1002D000089599275A924A92480E591E0895369ABF
:1002E0003699FECF369A3699FECF84B195B10895EE
:1002F000C89531960020089591E005C092E003C0B2
:1003000094E001C098E0F4DF0D929A95E1F708952A
:06031000E80FF91FF1CF18
:00000001FF
