:100000000C942A001895000018950000189500001F
:10001000189500001895000018950000189500002C
:10002000189500001895000018950000189500001C
:10003000189500001895000018950000189500000C
:1000400018950000189500001895000018950000FC
:10005000189500008FE58DBFC8E3E0E24E2E88E0E2
:100060008EBFD8E0F8E05F2EA89584B7082E877F72
:1000700084BF88E1992781BD91BDEEEFF7E0A0E64E
:10008000B0E088278D933197E9F70E946C016624D0
:100090008CE00E94BA010E94570178948D9A95983D
:1000A0008D9A81E88FBD83E08EBD80E090E09093D3
:1000B0004B0080934A008A9A92988B9A9398B898AA
:1000C000C09AB998C19ABA98C29ABB98C39ABC9878
:1000D000C49A8AEF80936000A1E6B0E0ECECF4E013
:1000E0000E94FB010E940E010E941701B898A7E62A
:1000F000B0E09C9197FF04C0B09B10C09F779C9389
:10010000B0990CC08EE19F9390E00E94E7019F910F
:10011000B09904C090689C930E94FC00B998A7E62F
:10012000B0E09C9196FF04C0B19B10C09F7B9C9354
:10013000B1990CC08EE19F9390E00E94E7019F91DE
:10014000B19904C090649C930E940E01BA98A7E6EE
:10015000B0E09C9195FF04C0B29B10C09F7D9C9322
:10016000B2990CC08EE19F9390E00E94E7019F91AD
:10017000B29904C090629C930E940501BB98A7E6C7
:10018000B0E09C9194FF04C0B39B10C09F7E9C93F1
:10019000B3990CC08EE19F9390E00E94E7019F917C
:1001A000B39904C090619C930E943C01BC98A7E65F
:1001B000B0E09C9193FF04C0B49B10C0977F9C93C8
:1001C000B4990CC08EE19F9390E00E94E7019F914B
:1001D000B49904C098609C930E9442010E94170148
:1001E000A0E6B0E08C91992790934B0080934A0051
:1001F0000C947600F894FFCFA1E6B0E0E2EDF4E0D5
:100200000E94FB019298939A0895A1E6B0E0E8ED70
:10021000F4E00E94FB01929A93980895A1E6B0E061
:10022000ECECF4E00E94FB019298939808958FE71C
:1002300011E00E946601EEEDF4E00E945001A1E69B
:10024000B0E00E944A01E8EEF4E00E9450018FEB1A
:1002500011E00E946601ECEEF4E00E945001A8E07B
:10026000B8E0E0E6F0E00E9420020E944801E8EEDB
:10027000F4E00E9450010895A0E6B0E08C91865F02
:100280008C930895A0E6B0E08C918A508C930895E9
:10029000A8E0B8E08D91882311F066D0FBCF0895D7
:1002A0000E940102802D11F05FD0FACF089581E005
:1002B00061D00FD080E85EC08FE7213039F08FEB3E
:1002C000223021F08FE8233009F08FEC810F0C945D
:1002D000BA0183E099277BC08AEF90E00E94E70192
:1002E000D79AD69AD59AD49AD29AD09AD89885E0A5
:1002F00090E00E94E701DA98DF98DE98DD9ADC9AB8
:10030000DA9AEF93FF93E4ECF0E00E94DB01FF91B7
:10031000EF91DA9859D0DA9AEF93FF93E4ECF0E09A
:100320000E94DB01FF91EF91DA984ED0DA9AEF93B9
:10033000FF93E4ECF0E00E94DB01FF91EF91DA988B
:1003400043D0DC98DA9AEF93FF93E4ECF0E00E945C
:10035000DB01FF91EF91DA9837D088E20BD08EE085
:1003600009D086E007D00895D89A829505D004D0A8
:100370002BD00895D898F9CF859510F4DC9A01C058
:10038000DC98859510F4DD9A01C0DD98859510F410
:10039000DE9A01C0DE98859510F4DF9A01C0DF98DF
:1003A000DA9AEF93FF93E4ECF0E00E94DB01FF9117
:1003B000EF91DA9808953197F1F70895689462F80B
:1003C0000895E89462F8089581E090E000C0EF930A
:1003D000FF93EE27E82BE92B31F0E0EDF7E03197C2
:1003E000F1F70197D1F7FF91EF91089501911191E4
:1003F0002191308108950E9401020D920020D9F7C9
:100400000895C895319600200895000F111F221FEE
:10041000331F089500951095209530950F5F1F4F5D
:100420002F4F3F4F0895019110810CC00E94F6019B
:100430000BC00191108117FF05C03FEF2FEF04C0E3
:10044000008111272227332737FF03C0E3DF8DE226
:100450008D93CF92DF92EF92AA24BB24CC24DD248B
:10046000EE2440E2EAE0FF2755E093E38081890F24
:1004700087FD9F7083FD907F891B81935A95A9F713
:10048000C4DFAA1CBB1CCC1CDD1CEE1C4A9551F71A
:10049000E894EFE0FF2782910CD0EB30E0F71EF0FC
:1004A00068948A2D0AD088278D93EF90DF90CF90A3
:1004B0000895982F829501D0892F8F70805D26F046
:1004C000803309F4089568948D93089553746F7080
:1004D000000046726F6E74004261636B00004469F5
:1004E000726563743A2000002020000050574D3D93
:0204F0002000EA
:00000001FF
