:1000000012C0189518951895189518951895189563
:10001000189596C2189518951895189518951895CD
:100020001895189518958FE58DBFC8E3E0E24E2E20
:1000300084E08EBFD4E0F4E05F2EA89584B7082E4C
:10004000877F84BF88E1992781BD91BDEEEFF3E002
:10005000A0E6B0E088278D933197E9F7662474B75E
:10006000777F74BF8FE181BD87E081BD81B58860F6
:1000700081BD7894A19AA998A09AA898BD9AC5988C
:10008000BC9AC498B99AC1988C9A94988898909A76
:100090008998919AA598AD9AA498AC9AA398AB9A8E
:1000A000A298AA9A80E080936000709161007F77A7
:1000B000709361008FEF809362008FEF80936300F5
:1000C000DBD1E9D137D202D2949A8CE291E04ED2C0
:1000D0009498A895949859D2A2E6B0E02C93A3E600
:1000E000B0E01C93E8D140916000009162000417D9
:1000F00009F0BFC1A1E6B0E08C9187FB0EF4DAC035
:1001000000916300013009F022C09D9B0EC0A4E65F
:10011000B0E08C9191E089278C9302D2D7D1949A48
:100120008CE291E023D2949811C0949A709164006B
:10013000716070936400CAD180E293E017D270912D
:1001400064007E7F70936400C1D19498B2C0023085
:1001500009F022C09C9B0EC0A4E6B0E08C9192E016
:1001600089278C93DDD1B2D1949A8CE291E0FED1B3
:10017000949811C0949A70916400726070936400B6
:10018000A5D180E293E0F2D1709164007D7F7093FD
:1001900064009CD194988DC0033009F022C09B9BD1
:1001A0000EC0A4E6B0E08C9194E089278C93B8D17E
:1001B0008DD1949A8CE291E0D9D1949811C0949AFF
:1001C0007091640074607093640080D180E293E069
:1001D000CDD1709164007B7F7093640077D1949847
:1001E00068C0043009F022C09A9B0EC0A4E6B0E0BB
:1001F0008C9198E089278C9393D168D1949A8CE262
:1002000091E0B4D1949811C0949A70916400786090
:10021000709364005BD180E293E0A8D17091640098
:10022000777F7093640052D1949843C00C3009F0EA
:100230001CC0709164007E7F7093640070916400B4
:100240007D7F70936400709164007B7F7093640085
:1002500070916400777F7093640062D137D1949A73
:100260008CE291E083D1949824C0003009F01CC046
:10027000709164007E7F70936400709164007D7F54
:1002800070936400709164007B7F70936400709140
:100290006400777F7093640043D118D1949A8CE204
:1002A00091E064D1949805C0949A8CE291E05ED17B
:1002B0009498DFC0A1E6B0E08C9187FB0EF0D9C026
:1002C00000916300053009F022C09D9B0EC0A4E69A
:1002D000B0E08C9191E089278C9322D1F7D0949A49
:1002E0008CE291E043D1949811C0949A709164008B
:1002F000716070936400EAD080E293E037D170912E
:1003000064007E7F70936400E1D09498B2C00630A0
:1003100009F022C09C9B0EC0A4E6B0E08C9192E054
:1003200089278C93FDD0D2D0949A8CE291E01ED193
:10033000949811C0949A70916400726070936400F4
:10034000C5D080E293E012D1709164007D7F7093FC
:100350006400BCD094988DC0073009F022C09B9BEC
:100360000EC0A4E6B0E08C9194E089278C93D8D09D
:10037000ADD0949A8CE291E0F9D0949811C0949AFF
:1003800070916400746070936400A0D080E293E088
:10039000EDD0709164007B7F7093640097D0949847
:1003A00068C0083009F022C09A9B0EC0A4E6B0E0F5
:1003B0008C9198E089278C93B3D088D0949A8CE262
:1003C00091E0D4D0949811C0949A709164007860B0
:1003D000709364007BD080E293E0C8D07091640099
:1003E000777F7093640072D0949843C00C3009F00A
:1003F0001CC0709164007E7F7093640070916400F3
:100400007D7F70936400709164007B7F70936400C3
:1004100070916400777F7093640082D057D0949A73
:100420008CE291E0A3D0949824C0003009F01CC065
:10043000709164007E7F70936400709164007D7F92
:1004400070936400709164007B7F7093640070917E
:100450006400777F7093640063D038D0949A8CE204
:1004600091E084D0949805C0949A8CE291E07ED07B
:1004700094982FCEF894FFCF80E08093600080990D
:1004800004C080E08093600005C0809B03C081E0D1
:10049000809360000895819906C0709161007F7714
:1004A0007093610007C0819B05C070916100706806
:1004B000709361000895A2E6B0E08C918F718C93E7
:1004C000A3E6B0E08C918F738C930895A4E6B0E01E
:1004D0008C9180FBA5E3B0E08C9181F98C93A4E62C
:1004E000B0E08C9181FBA5E3B0E08C9180F98C9316
:1004F000A4E6B0E08C9182FBA8E3B0E08C9185F992
:100500008C93A4E6B0E08C9183FBA8E3B0E08C91DF
:1005100084F98C93C19A82E090E028D0C198089524
:10052000E0E0F0E0A4E6B0E07BE7A7D08AE090E06E
:100530001DD00895E0E0F0E0A4E6B0E0AFD008956B
:100540008F939F938FB73395539509F4439591EC0F
:1005500092BF9F918FBF8F9118953197F1F70895B2
:10056000689462F80895E89462F80895EF93FF9311
:10057000EE27E82BE92B31F0E0EDF7E03197F1F7CA
:100580000197D1F7FF91EF9108950F933F934F9308
:100590005F932F923F928F939F938FB78F9383B7E1
:1005A0008F93826083BF89B78F93816089BF81EC0D
:1005B00082BF552744273327343608F047C03733E6
:1005C00020F4829BF8CFF8CF41C03436E8F7829907
:1005D000FCCF33273232C0F7829BFCCF932F3327D7
:1005E00011272227913110F0969511E0292E26949B
:1005F000322C290E990F390E113021F0321520F7C7
:100600008299FCCF33270CE03215F0F3829909C0B0
:100610008894111F221F3315C8F4829BFCCF332707
:1006200008C00894111F221F331580F48299FCCF53
:1006300033270A9549F7912F991F221F991F221FCF
:1006400025FB17F926FB16F92F7102C01FEF2FEFBC
:100650008F9189BF8F9183BF8F918FBF9F918F9112
:100660003F902F905F914F913F910F910895E199A5
:10067000FECFEEBBFFBB3196089591E001C092E042
:100680007B3751F47FB7F894F2DF8D918DBBE29AFE
:10069000E19A9A95C9F77FBF7727089591E001C045
:1006A00092E0E5DFE09A8DB38D939A95D1F70895A6
:00000001FF
